{"contracts/EmojiChatV2.sol":{"EmojiChatV2":{"abi":[{"inputs":[],"stateMutability":"nonpayable","type":"constructor"},{"inputs":[{"internalType":"address","name":"target","type":"address"}],"name":"AddressEmptyCode","type":"error"},{"inputs":[{"internalType":"address","name":"sender","type":"address"},{"internalType":"uint256","name":"balance","type":"uint256"},{"internalType":"uint256","name":"needed","type":"uint256"},{"internalType":"uint256","name":"tokenId","type":"uint256"}],"name":"ERC1155InsufficientBalance","type":"error"},{"inputs":[{"internalType":"address","name":"approver","type":"address"}],"name":"ERC1155InvalidApprover","type":"error"},{"inputs":[{"internalType":"uint256","name":"idsLength","type":"uint256"},{"internalType":"uint256","name":"valuesLength","type":"uint256"}],"name":"ERC1155InvalidArrayLength","type":"error"},{"inputs":[{"internalType":"address","name":"operator","type":"address"}],"name":"ERC1155InvalidOperator","type":"error"},{"inputs":[{"internalType":"address","name":"receiver","type":"address"}],"name":"ERC1155InvalidReceiver","type":"error"},{"inputs":[{"internalType":"address","name":"sender","type":"address"}],"name":"ERC1155InvalidSender","type":"error"},{"inputs":[{"internalType":"address","name":"operator","type":"address"},{"internalType":"address","name":"owner","type":"address"}],"name":"ERC1155MissingApprovalForAll","type":"error"},{"inputs":[{"internalType":"address","name":"implementation","type":"address"}],"name":"ERC1967InvalidImplementation","type":"error"},{"inputs":[],"name":"ERC1967NonPayable","type":"error"},{"inputs":[],"name":"EnforcedPause","type":"error"},{"inputs":[],"name":"ExpectedPause","type":"error"},{"inputs":[],"name":"FailedCall","type":"error"},{"inputs":[],"name":"InvalidInitialization","type":"error"},{"inputs":[],"name":"NotInitializing","type":"error"},{"inputs":[{"internalType":"address","name":"owner","type":"address"}],"name":"OwnableInvalidOwner","type":"error"},{"inputs":[{"internalType":"address","name":"account","type":"address"}],"name":"OwnableUnauthorizedAccount","type":"error"},{"inputs":[],"name":"UUPSUnauthorizedCallContext","type":"error"},{"inputs":[{"internalType":"bytes32","name":"slot","type":"bytes32"}],"name":"UUPSUnsupportedProxiableUUID","type":"error"},{"anonymous":false,"inputs":[{"indexed":true,"internalType":"address","name":"account","type":"address"},{"indexed":true,"internalType":"address","name":"operator","type":"address"},{"indexed":false,"internalType":"bool","name":"approved","type":"bool"}],"name":"ApprovalForAll","type":"event"},{"anonymous":false,"inputs":[{"indexed":false,"internalType":"uint64","name":"version","type":"uint64"}],"name":"Initialized","type":"event"},{"anonymous":false,"inputs":[{"indexed":true,"internalType":"address","name":"previousOwner","type":"address"},{"indexed":true,"internalType":"address","name":"newOwner","type":"address"}],"name":"OwnershipTransferred","type":"event"},{"anonymous":false,"inputs":[{"indexed":false,"internalType":"address","name":"account","type":"address"}],"name":"Paused","type":"event"},{"anonymous":false,"inputs":[{"indexed":true,"internalType":"address","name":"operator","type":"address"},{"indexed":true,"internalType":"address","name":"from","type":"address"},{"indexed":true,"internalType":"address","name":"to","type":"address"},{"indexed":false,"internalType":"uint256[]","name":"ids","type":"uint256[]"},{"indexed":false,"internalType":"uint256[]","name":"values","type":"uint256[]"}],"name":"TransferBatch","type":"event"},{"anonymous":false,"inputs":[{"indexed":true,"internalType":"address","name":"operator","type":"address"},{"indexed":true,"internalType":"address","name":"from","type":"address"},{"indexed":true,"internalType":"address","name":"to","type":"address"},{"indexed":false,"internalType":"uint256","name":"id","type":"uint256"},{"indexed":false,"internalType":"uint256","name":"value","type":"uint256"}],"name":"TransferSingle","type":"event"},{"anonymous":false,"inputs":[{"indexed":false,"internalType":"string","name":"value","type":"string"},{"indexed":true,"internalType":"uint256","name":"id","type":"uint256"}],"name":"URI","type":"event"},{"anonymous":false,"inputs":[{"indexed":false,"internalType":"address","name":"account","type":"address"}],"name":"Unpaused","type":"event"},{"anonymous":false,"inputs":[{"indexed":true,"internalType":"address","name":"implementation","type":"address"}],"name":"Upgraded","type":"event"},{"inputs":[],"name":"UPGRADE_INTERFACE_VERSION","outputs":[{"internalType":"string","name":"","type":"string"}],"stateMutability":"view","type":"function"},{"inputs":[{"internalType":"address","name":"account","type":"address"},{"internalType":"uint256","name":"id","type":"uint256"}],"name":"balanceOf","outputs":[{"internalType":"uint256","name":"","type":"uint256"}],"stateMutability":"view","type":"function"},{"inputs":[{"internalType":"address[]","name":"accounts","type":"address[]"},{"internalType":"uint256[]","name":"ids","type":"uint256[]"}],"name":"balanceOfBatch","outputs":[{"internalType":"uint256[]","name":"","type":"uint256[]"}],"stateMutability":"view","type":"function"},{"inputs":[{"internalType":"uint256","name":"id","type":"uint256"}],"name":"exists","outputs":[{"internalType":"bool","name":"","type":"bool"}],"stateMutability":"view","type":"function"},{"inputs":[{"internalType":"uint256","name":"","type":"uint256"}],"name":"firstMinter","outputs":[{"internalType":"address","name":"","type":"address"}],"stateMutability":"view","type":"function"},{"inputs":[{"internalType":"address","name":"initialOwner","type":"address"}],"name":"initialize","outputs":[],"stateMutability":"nonpayable","type":"function"},{"inputs":[{"internalType":"address","name":"account","type":"address"},{"internalType":"address","name":"operator","type":"address"}],"name":"isApprovedForAll","outputs":[{"internalType":"bool","name":"","type":"bool"}],"stateMutability":"view","type":"function"},{"inputs":[{"internalType":"address","name":"account","type":"address"},{"internalType":"uint256","name":"id","type":"uint256"},{"internalType":"uint256","name":"amount","type":"uint256"},{"internalType":"bytes","name":"data","type":"bytes"}],"name":"mint","outputs":[],"stateMutability":"nonpayable","type":"function"},{"inputs":[{"internalType":"address","name":"to","type":"address"},{"internalType":"uint256[]","name":"ids","type":"uint256[]"},{"internalType":"uint256[]","name":"amounts","type":"uint256[]"},{"internalType":"bytes","name":"data","type":"bytes"}],"name":"mintBatch","outputs":[],"stateMutability":"nonpayable","type":"function"},{"inputs":[],"name":"owner","outputs":[{"internalType":"address","name":"","type":"address"}],"stateMutability":"view","type":"function"},{"inputs":[],"name":"pause","outputs":[],"stateMutability":"nonpayable","type":"function"},{"inputs":[],"name":"paused","outputs":[{"internalType":"bool","name":"","type":"bool"}],"stateMutability":"view","type":"function"},{"inputs":[],"name":"proxiableUUID","outputs":[{"internalType":"bytes32","name":"","type":"bytes32"}],"stateMutability":"view","type":"function"},{"inputs":[],"name":"renounceOwnership","outputs":[],"stateMutability":"nonpayable","type":"function"},{"inputs":[{"internalType":"address","name":"from","type":"address"},{"internalType":"address","name":"to","type":"address"},{"internalType":"uint256[]","name":"ids","type":"uint256[]"},{"internalType":"uint256[]","name":"values","type":"uint256[]"},{"internalType":"bytes","name":"data","type":"bytes"}],"name":"safeBatchTransferFrom","outputs":[],"stateMutability":"nonpayable","type":"function"},{"inputs":[{"internalType":"address","name":"from","type":"address"},{"internalType":"address","name":"to","type":"address"},{"internalType":"uint256","name":"id","type":"uint256"},{"internalType":"uint256","name":"value","type":"uint256"},{"internalType":"bytes","name":"data","type":"bytes"}],"name":"safeTransferFrom","outputs":[],"stateMutability":"nonpayable","type":"function"},{"inputs":[{"internalType":"address","name":"operator","type":"address"},{"internalType":"bool","name":"approved","type":"bool"}],"name":"setApprovalForAll","outputs":[],"stateMutability":"nonpayable","type":"function"},{"inputs":[{"internalType":"string","name":"newuri","type":"string"}],"name":"setURI","outputs":[],"stateMutability":"nonpayable","type":"function"},{"inputs":[{"internalType":"bytes4","name":"interfaceId","type":"bytes4"}],"name":"supportsInterface","outputs":[{"internalType":"bool","name":"","type":"bool"}],"stateMutability":"view","type":"function"},{"inputs":[],"name":"totalSupply","outputs":[{"internalType":"uint256","name":"","type":"uint256"}],"stateMutability":"view","type":"function"},{"inputs":[{"internalType":"uint256","name":"id","type":"uint256"}],"name":"totalSupply","outputs":[{"internalType":"uint256","name":"","type":"uint256"}],"stateMutability":"view","type":"function"},{"inputs":[{"internalType":"address","name":"newOwner","type":"address"}],"name":"transferOwnership","outputs":[],"stateMutability":"nonpayable","type":"function"},{"inputs":[],"name":"unpause","outputs":[],"stateMutability":"nonpayable","type":"function"},{"inputs":[{"internalType":"address","name":"newImplementation","type":"address"},{"internalType":"bytes","name":"data","type":"bytes"}],"name":"upgradeToAndCall","outputs":[],"stateMutability":"payable","type":"function"},{"inputs":[{"internalType":"uint256","name":"tokenId","type":"uint256"}],"name":"uri","outputs":[{"internalType":"string","name":"","type":"string"}],"stateMutability":"view","type":"function"}],"evm":{"bytecode":{"linkReferences":{},"object":"60a06040523073ffffffffffffffffffffffffffffffffffffffff1660809073ffffffffffffffffffffffffffffffffffffffff1681525034801561004357600080fd5b5061005261005760201b60201c565b6101de565b600061006761015b60201b60201c565b90508060000160089054906101000a900460ff16156100b2576040517ff92ee8a900000000000000000000000000000000000000000000000000000000815260040160405180910390fd5b67ffffffffffffffff80168160000160009054906101000a900467ffffffffffffffff1667ffffffffffffffff16146101585767ffffffffffffffff8160000160006101000a81548167ffffffffffffffff021916908367ffffffffffffffff1602179055507fc7f505b2f371ae2175ee4913f4499e1f2633a7b5936321eed1cdaeb6115181d267ffffffffffffffff60405161014f91906101c3565b60405180910390a15b50565b60008061016c61017560201b60201c565b90508091505090565b60007ff0c57e16840df040f15088dc2f81fe391c3923bec73e23a9662efc9c229c6a0060001b905090565b600067ffffffffffffffff82169050919050565b6101bd816101a0565b82525050565b60006020820190506101d860008301846101b4565b92915050565b6080516140296102076000396000818161147f015281816114d4015261168f01526140296000f3fe6080604052600436106101655760003560e01c806352d1902d116100d1578063a22cb4651161008a578063c4d66de811610064578063c4d66de81461051a578063e985e9c514610543578063f242432a14610580578063f2fde38b146105a957610165565b8063a22cb46514610489578063ad3cb1cc146104b2578063bd85b039146104dd57610165565b806352d1902d146103b15780635c975abb146103dc578063715018a614610407578063731133e91461041e5780638456cb59146104475780638da5cb5b1461045e57610165565b80632eb2c2d6116101235780632eb2c2d61461029e5780632faa69a8146102c75780633f4ba83a146103045780634e1273f41461031b5780634f1ef286146103585780634f558e791461037457610165565b8062fdd58e1461016a57806301ffc9a7146101a757806302fe5305146101e45780630e89341c1461020d57806318160ddd1461024a5780631f7fdffa14610275575b600080fd5b34801561017657600080fd5b50610191600480360381019061018c9190612cf7565b6105d2565b60405161019e9190612d46565b60405180910390f35b3480156101b357600080fd5b506101ce60048036038101906101c99190612db9565b61063b565b6040516101db9190612e01565b60405180910390f35b3480156101f057600080fd5b5061020b60048036038101906102069190612f62565b61071d565b005b34801561021957600080fd5b50610234600480360381019061022f9190612fab565b610738565b6040516102419190613057565b60405180910390f35b34801561025657600080fd5b5061025f61076c565b60405161026c9190612d46565b60405180910390f35b34801561028157600080fd5b5061029c600480360381019061029791906131e2565b610784565b005b3480156102aa57600080fd5b506102c560048036038101906102c0919061329d565b61089c565b005b3480156102d357600080fd5b506102ee60048036038101906102e99190612fab565b610944565b6040516102fb919061337b565b60405180910390f35b34801561031057600080fd5b50610319610977565b005b34801561032757600080fd5b50610342600480360381019061033d9190613459565b610989565b60405161034f919061358f565b60405180910390f35b610372600480360381019061036d91906135b1565b610a92565b005b34801561038057600080fd5b5061039b60048036038101906103969190612fab565b610ab1565b6040516103a89190612e01565b60405180910390f35b3480156103bd57600080fd5b506103c6610ac5565b6040516103d39190613626565b60405180910390f35b3480156103e857600080fd5b506103f1610af8565b6040516103fe9190612e01565b60405180910390f35b34801561041357600080fd5b5061041c610b1d565b005b34801561042a57600080fd5b5061044560048036038101906104409190613641565b610b31565b005b34801561045357600080fd5b5061045c610bfb565b005b34801561046a57600080fd5b50610473610c0d565b604051610480919061337b565b60405180910390f35b34801561049557600080fd5b506104b060048036038101906104ab91906136f0565b610c45565b005b3480156104be57600080fd5b506104c7610c5b565b6040516104d49190613057565b60405180910390f35b3480156104e957600080fd5b5061050460048036038101906104ff9190612fab565b610c94565b6040516105119190612d46565b60405180910390f35b34801561052657600080fd5b50610541600480360381019061053c9190613730565b610cbf565b005b34801561054f57600080fd5b5061056a6004803603810190610565919061375d565b610e7e565b6040516105779190612e01565b60405180910390f35b34801561058c57600080fd5b506105a760048036038101906105a2919061379d565b610f20565b005b3480156105b557600080fd5b506105d060048036038101906105cb9190613730565b610fc8565b005b6000806105dd61104e565b905080600001600084815260200190815260200160002060008573ffffffffffffffffffffffffffffffffffffffff1673ffffffffffffffffffffffffffffffffffffffff1681526020019081526020016000205491505092915050565b60007fd9b67a26000000000000000000000000000000000000000000000000000000007bffffffffffffffffffffffffffffffffffffffffffffffffffffffff1916827bffffffffffffffffffffffffffffffffffffffffffffffffffffffff1916148061070657507f0e89341c000000000000000000000000000000000000000000000000000000007bffffffffffffffffffffffffffffffffffffffffffffffffffffffff1916827bffffffffffffffffffffffffffffffffffffffffffffffffffffffff1916145b80610716575061071582611076565b5b9050919050565b6107256110e0565b80600190816107349190613a40565b5050565b6060600161074583611167565b604051602001610756929190613bd1565b6040516020818303038152906040529050919050565b600080610777611235565b9050806001015491505090565b60005b835181101561088957600073ffffffffffffffffffffffffffffffffffffffff166000808684815181106107be576107bd613bf5565b5b6020026020010151815260200190815260200160002060009054906101000a900473ffffffffffffffffffffffffffffffffffffffff1673ffffffffffffffffffffffffffffffffffffffff160361087c578460008086848151811061082757610826613bf5565b5b6020026020010151815260200190815260200160002060006101000a81548173ffffffffffffffffffffffffffffffffffffffff021916908373ffffffffffffffffffffffffffffffffffffffff1602179055505b8080600101915050610787565b506108968484848461125d565b50505050565b60006108a66112e3565b90508073ffffffffffffffffffffffffffffffffffffffff168673ffffffffffffffffffffffffffffffffffffffff16141580156108eb57506108e98682610e7e565b155b1561092f5780866040517fe237d922000000000000000000000000000000000000000000000000000000008152600401610926929190613c24565b60405180910390fd5b61093c86868686866112eb565b505050505050565b60006020528060005260406000206000915054906101000a900473ffffffffffffffffffffffffffffffffffffffff1681565b61097f6110e0565b6109876113e3565b565b606081518351146109d557815183516040517f5b0599910000000000000000000000000000000000000000000000000000000081526004016109cc929190613c4d565b60405180910390fd5b6000835167ffffffffffffffff8111156109f2576109f1612e37565b5b604051908082528060200260200182016040528015610a205781602001602082028036833780820191505090505b50905060005b8451811015610a8757610a5d610a45828761145590919063ffffffff16565b610a58838761146990919063ffffffff16565b6105d2565b828281518110610a7057610a6f613bf5565b5b602002602001018181525050806001019050610a26565b508091505092915050565b610a9a61147d565b610aa382611563565b610aad828261156e565b5050565b600080610abd83610c94565b119050919050565b6000610acf61168d565b7f360894a13ba1a3210667c828492db98dca3e2076cc3735a920a3ca505d382bbc60001b905090565b600080610b03611714565b90508060000160009054906101000a900460ff1691505090565b610b256110e0565b610b2f600061173c565b565b600073ffffffffffffffffffffffffffffffffffffffff1660008085815260200190815260200160002060009054906101000a900473ffffffffffffffffffffffffffffffffffffffff1673ffffffffffffffffffffffffffffffffffffffff1603610be9578360008085815260200190815260200160002060006101000a81548173ffffffffffffffffffffffffffffffffffffffff021916908373ffffffffffffffffffffffffffffffffffffffff1602179055505b610bf584848484611813565b50505050565b610c036110e0565b610c0b6118ac565b565b600080610c1861191e565b90508060000160009054906101000a900473ffffffffffffffffffffffffffffffffffffffff1691505090565b610c57610c506112e3565b8383611946565b5050565b6040518060400160405280600581526020017f352e302e3000000000000000000000000000000000000000000000000000000081525081565b600080610c9f611235565b905080600001600084815260200190815260200160002054915050919050565b6000610cc9611ac5565b905060008160000160089054906101000a900460ff1615905060008260000160009054906101000a900467ffffffffffffffff1690506000808267ffffffffffffffff16148015610d175750825b9050600060018367ffffffffffffffff16148015610d4c575060003073ffffffffffffffffffffffffffffffffffffffff163b145b905081158015610d5a575080155b15610d91576040517ff92ee8a900000000000000000000000000000000000000000000000000000000815260040160405180910390fd5b60018560000160006101000a81548167ffffffffffffffff021916908367ffffffffffffffff1602179055508315610de15760018560000160086101000a81548160ff0219169083151502179055505b610df960405180602001604052806000815250611ad9565b610e0286611aed565b610e0a611b01565b610e12611b0b565b610e1a611b15565b8315610e765760008560000160086101000a81548160ff0219169083151502179055507fc7f505b2f371ae2175ee4913f4499e1f2633a7b5936321eed1cdaeb6115181d26001604051610e6d9190613cc5565b60405180910390a15b505050505050565b600080610e8961104e565b90508060010160008573ffffffffffffffffffffffffffffffffffffffff1673ffffffffffffffffffffffffffffffffffffffff16815260200190815260200160002060008473ffffffffffffffffffffffffffffffffffffffff1673ffffffffffffffffffffffffffffffffffffffff16815260200190815260200160002060009054906101000a900460ff1691505092915050565b6000610f2a6112e3565b90508073ffffffffffffffffffffffffffffffffffffffff168673ffffffffffffffffffffffffffffffffffffffff1614158015610f6f5750610f6d8682610e7e565b155b15610fb35780866040517fe237d922000000000000000000000000000000000000000000000000000000008152600401610faa929190613c24565b60405180910390fd5b610fc08686868686611b1f565b505050505050565b610fd06110e0565b600073ffffffffffffffffffffffffffffffffffffffff168173ffffffffffffffffffffffffffffffffffffffff16036110425760006040517f1e4fbdf7000000000000000000000000000000000000000000000000000000008152600401611039919061337b565b60405180910390fd5b61104b8161173c565b50565b60007f88be536d5240c274a3b1d3a1be54482fd9caa294f08c62a7cde569f49a3c4500905090565b60007f01ffc9a7000000000000000000000000000000000000000000000000000000007bffffffffffffffffffffffffffffffffffffffffffffffffffffffff1916827bffffffffffffffffffffffffffffffffffffffffffffffffffffffff1916149050919050565b6110e86112e3565b73ffffffffffffffffffffffffffffffffffffffff16611106610c0d565b73ffffffffffffffffffffffffffffffffffffffff1614611165576111296112e3565b6040517f118cdaa700000000000000000000000000000000000000000000000000000000815260040161115c919061337b565b60405180910390fd5b565b60606000600161117684611c2a565b01905060008167ffffffffffffffff81111561119557611194612e37565b5b6040519080825280601f01601f1916602001820160405280156111c75781602001600182028036833780820191505090505b509050600082602001820190505b60011561122a578080600190039150507f3031323334353637383961626364656600000000000000000000000000000000600a86061a8153600a858161121e5761121d613ce0565b5b049450600085036111d5575b819350505050919050565b60007f4a593662ee04d27b6a00ebb31be7fe0c102c2ade82a7c5d764f2df05dc4e2800905090565b600073ffffffffffffffffffffffffffffffffffffffff168473ffffffffffffffffffffffffffffffffffffffff16036112cf5760006040517f57f447ce0000000000000000000000000000000000000000000000000000000081526004016112c6919061337b565b60405180910390fd5b6112dd600085858585611d7d565b50505050565b600033905090565b600073ffffffffffffffffffffffffffffffffffffffff168473ffffffffffffffffffffffffffffffffffffffff160361135d5760006040517f57f447ce000000000000000000000000000000000000000000000000000000008152600401611354919061337b565b60405180910390fd5b600073ffffffffffffffffffffffffffffffffffffffff168573ffffffffffffffffffffffffffffffffffffffff16036113cf5760006040517f01a835140000000000000000000000000000000000000000000000000000000081526004016113c6919061337b565b60405180910390fd5b6113dc8585858585611d7d565b5050505050565b6113eb611e2f565b60006113f5611714565b905060008160000160006101000a81548160ff0219169083151502179055507f5db9ee0a495bf2e6ff9c91a7834c1ba4fdd244a5e8aa4e537bd38aeae4b073aa61143d6112e3565b60405161144a919061337b565b60405180910390a150565b600060208202602084010151905092915050565b600060208202602084010151905092915050565b7f000000000000000000000000000000000000000000000000000000000000000073ffffffffffffffffffffffffffffffffffffffff163073ffffffffffffffffffffffffffffffffffffffff16148061152a57507f000000000000000000000000000000000000000000000000000000000000000073ffffffffffffffffffffffffffffffffffffffff16611511611e6f565b73ffffffffffffffffffffffffffffffffffffffff1614155b15611561576040517fe07c8dba00000000000000000000000000000000000000000000000000000000815260040160405180910390fd5b565b61156b6110e0565b50565b8173ffffffffffffffffffffffffffffffffffffffff166352d1902d6040518163ffffffff1660e01b8152600401602060405180830381865afa9250505080156115d657506040513d601f19601f820116820180604052508101906115d39190613d3b565b60015b61161757816040517f4c9c8ce300000000000000000000000000000000000000000000000000000000815260040161160e919061337b565b60405180910390fd5b7f360894a13ba1a3210667c828492db98dca3e2076cc3735a920a3ca505d382bbc60001b811461167e57806040517faa1d49a40000000000000000000000000000000000000000000000000000000081526004016116759190613626565b60405180910390fd5b6116888383611ec6565b505050565b7f000000000000000000000000000000000000000000000000000000000000000073ffffffffffffffffffffffffffffffffffffffff163073ffffffffffffffffffffffffffffffffffffffff1614611712576040517fe07c8dba00000000000000000000000000000000000000000000000000000000815260040160405180910390fd5b565b60007fcd5ed15c6e187e77e9aee88184c21f4f2182ab5827cb3b7e07fbedcd63f03300905090565b600061174661191e565b905060008160000160009054906101000a900473ffffffffffffffffffffffffffffffffffffffff169050828260000160006101000a81548173ffffffffffffffffffffffffffffffffffffffff021916908373ffffffffffffffffffffffffffffffffffffffff1602179055508273ffffffffffffffffffffffffffffffffffffffff168173ffffffffffffffffffffffffffffffffffffffff167f8be0079c531659141344cd1fd0a4f28419497f9722a3daafe3b4186f6b6457e060405160405180910390a3505050565b600073ffffffffffffffffffffffffffffffffffffffff168473ffffffffffffffffffffffffffffffffffffffff16036118855760006040517f57f447ce00000000000000000000000000000000000000000000000000000000815260040161187c919061337b565b60405180910390fd5b6000806118928585611f39565b915091506118a4600087848487611d7d565b505050505050565b6118b4611f69565b60006118be611714565b905060018160000160006101000a81548160ff0219169083151502179055507f62e78cea01bee320cd4e420270b5ea74000d11b0c9f74754ebdbfc544b05a2586119066112e3565b604051611913919061337b565b60405180910390a150565b60007f9016d09d72d40fdae2fd8ceac6b6234c7706214fd39c1cd1e609a0528c199300905090565b600061195061104e565b9050600073ffffffffffffffffffffffffffffffffffffffff168373ffffffffffffffffffffffffffffffffffffffff16036119c45760006040517fced3e1000000000000000000000000000000000000000000000000000000000081526004016119bb919061337b565b60405180910390fd5b818160010160008673ffffffffffffffffffffffffffffffffffffffff1673ffffffffffffffffffffffffffffffffffffffff16815260200190815260200160002060008573ffffffffffffffffffffffffffffffffffffffff1673ffffffffffffffffffffffffffffffffffffffff16815260200190815260200160002060006101000a81548160ff0219169083151502179055508273ffffffffffffffffffffffffffffffffffffffff168473ffffffffffffffffffffffffffffffffffffffff167f17307eab39ab6107e8899845ad3d59bd9653f200f220920489ca2b5937696c3184604051611ab79190612e01565b60405180910390a350505050565b600080611ad0611faa565b90508091505090565b611ae1611fd5565b611aea81612015565b50565b611af5611fd5565b611afe81612029565b50565b611b09611fd5565b565b611b13611fd5565b565b611b1d611fd5565b565b600073ffffffffffffffffffffffffffffffffffffffff168473ffffffffffffffffffffffffffffffffffffffff1603611b915760006040517f57f447ce000000000000000000000000000000000000000000000000000000008152600401611b88919061337b565b60405180910390fd5b600073ffffffffffffffffffffffffffffffffffffffff168573ffffffffffffffffffffffffffffffffffffffff1603611c035760006040517f01a83514000000000000000000000000000000000000000000000000000000008152600401611bfa919061337b565b60405180910390fd5b600080611c108585611f39565b91509150611c218787848487611d7d565b50505050505050565b600080600090507a184f03e93ff9f4daa797ed6e38ed64bf6a1f0100000000000000008310611c88577a184f03e93ff9f4daa797ed6e38ed64bf6a1f0100000000000000008381611c7e57611c7d613ce0565b5b0492506040810190505b6d04ee2d6d415b85acef81000000008310611cc5576d04ee2d6d415b85acef81000000008381611cbb57611cba613ce0565b5b0492506020810190505b662386f26fc100008310611cf457662386f26fc100008381611cea57611ce9613ce0565b5b0492506010810190505b6305f5e1008310611d1d576305f5e1008381611d1357611d12613ce0565b5b0492506008810190505b6127108310611d42576127108381611d3857611d37613ce0565b5b0492506004810190505b60648310611d655760648381611d5b57611d5a613ce0565b5b0492506002810190505b600a8310611d74576001810190505b80915050919050565b611d89858585856120af565b600073ffffffffffffffffffffffffffffffffffffffff168473ffffffffffffffffffffffffffffffffffffffff1614611e28576000611dc76112e3565b90506001845103611e17576000611de860008661146990919063ffffffff16565b90506000611e0060008661146990919063ffffffff16565b9050611e108389898585896120c1565b5050611e26565b611e25818787878787612275565b5b505b5050505050565b611e37610af8565b611e6d576040517f8dfc202b00000000000000000000000000000000000000000000000000000000815260040160405180910390fd5b565b6000611e9d7f360894a13ba1a3210667c828492db98dca3e2076cc3735a920a3ca505d382bbc60001b612429565b60000160009054906101000a900473ffffffffffffffffffffffffffffffffffffffff16905090565b611ecf82612433565b8173ffffffffffffffffffffffffffffffffffffffff167fbc7cd75a20ee27fd9adebab32041f755214dbc6bffa90cc0225b39da2e5c2d3b60405160405180910390a2600081511115611f2c57611f268282612500565b50611f35565b611f34612584565b5b5050565b60608060405191506001825283602083015260408201905060018152826020820152604081016040529250929050565b611f71610af8565b15611fa8576040517fd93c066500000000000000000000000000000000000000000000000000000000815260040160405180910390fd5b565b60007ff0c57e16840df040f15088dc2f81fe391c3923bec73e23a9662efc9c229c6a0060001b905090565b611fdd6125c1565b612013576040517fd7e6bcf800000000000000000000000000000000000000000000000000000000815260040160405180910390fd5b565b61201d611fd5565b612026816125e1565b50565b612031611fd5565b600073ffffffffffffffffffffffffffffffffffffffff168173ffffffffffffffffffffffffffffffffffffffff16036120a35760006040517f1e4fbdf700000000000000000000000000000000000000000000000000000000815260040161209a919061337b565b60405180910390fd5b6120ac8161173c565b50565b6120bb84848484612603565b50505050565b60008473ffffffffffffffffffffffffffffffffffffffff163b111561226d578373ffffffffffffffffffffffffffffffffffffffff1663f23a6e6187878686866040518663ffffffff1660e01b8152600401612122959493929190613dbd565b6020604051808303816000875af192505050801561215e57506040513d601f19601f8201168201806040525081019061215b9190613e2c565b60015b6121e2573d806000811461218e576040519150601f19603f3d011682016040523d82523d6000602084013e612193565b606091505b5060008151036121da57846040517f57f447ce0000000000000000000000000000000000000000000000000000000081526004016121d1919061337b565b60405180910390fd5b805181602001fd5b63f23a6e6160e01b7bffffffffffffffffffffffffffffffffffffffffffffffffffffffff1916817bffffffffffffffffffffffffffffffffffffffffffffffffffffffff19161461226b57846040517f57f447ce000000000000000000000000000000000000000000000000000000008152600401612262919061337b565b60405180910390fd5b505b505050505050565b60008473ffffffffffffffffffffffffffffffffffffffff163b1115612421578373ffffffffffffffffffffffffffffffffffffffff1663bc197c8187878686866040518663ffffffff1660e01b81526004016122d6959493929190613e59565b6020604051808303816000875af192505050801561231257506040513d601f19601f8201168201806040525081019061230f9190613e2c565b60015b612396573d8060008114612342576040519150601f19603f3d011682016040523d82523d6000602084013e612347565b606091505b50600081510361238e57846040517f57f447ce000000000000000000000000000000000000000000000000000000008152600401612385919061337b565b60405180910390fd5b805181602001fd5b63bc197c8160e01b7bffffffffffffffffffffffffffffffffffffffffffffffffffffffff1916817bffffffffffffffffffffffffffffffffffffffffffffffffffffffff19161461241f57846040517f57f447ce000000000000000000000000000000000000000000000000000000008152600401612416919061337b565b60405180910390fd5b505b505050505050565b6000819050919050565b60008173ffffffffffffffffffffffffffffffffffffffff163b0361248f57806040517f4c9c8ce3000000000000000000000000000000000000000000000000000000008152600401612486919061337b565b60405180910390fd5b806124bc7f360894a13ba1a3210667c828492db98dca3e2076cc3735a920a3ca505d382bbc60001b612429565b60000160006101000a81548173ffffffffffffffffffffffffffffffffffffffff021916908373ffffffffffffffffffffffffffffffffffffffff16021790555050565b60606000808473ffffffffffffffffffffffffffffffffffffffff168460405161252a9190613efd565b600060405180830381855af49150503d8060008114612565576040519150601f19603f3d011682016040523d82523d6000602084013e61256a565b606091505b509150915061257a8583836127a3565b9250505092915050565b60003411156125bf576040517fb398979f00000000000000000000000000000000000000000000000000000000815260040160405180910390fd5b565b60006125cb611ac5565b60000160089054906101000a900460ff16905090565b60006125eb61104e565b9050818160020190816125fe9190613a40565b505050565b600061260d611235565b905061261b85858585612832565b600073ffffffffffffffffffffffffffffffffffffffff168573ffffffffffffffffffffffffffffffffffffffff16036126e9576000805b84518110156126cb576000612671828661146990919063ffffffff16565b90508084600001600061268d858a61146990919063ffffffff16565b815260200190815260200160002060008282546126aa9190613f43565b9250508190555080836126bd9190613f43565b925050806001019050612653565b50808260010160008282546126e09190613f43565b92505081905550505b600073ffffffffffffffffffffffffffffffffffffffff168473ffffffffffffffffffffffffffffffffffffffff160361279c576000805b845181101561278757600061273f828661146990919063ffffffff16565b90508084600001600061275b858a61146990919063ffffffff16565b815260200190815260200160002060008282540392505081905550808301925050806001019050612721565b50808260010160008282540392505081905550505b5050505050565b6060826127b8576127b38261284c565b61282a565b600082511480156127e0575060008473ffffffffffffffffffffffffffffffffffffffff163b145b1561282257836040517f9996b315000000000000000000000000000000000000000000000000000000008152600401612819919061337b565b60405180910390fd5b81905061282b565b5b9392505050565b61283a611f69565b61284684848484612891565b50505050565b60008151111561285f5780518082602001fd5b6040517fd6bda27500000000000000000000000000000000000000000000000000000000815260040160405180910390fd5b600061289b61104e565b905081518351146128e757825182516040517f5b0599910000000000000000000000000000000000000000000000000000000081526004016128de929190613c4d565b60405180910390fd5b60006128f16112e3565b905060005b8451811015612b09576000612914828761146990919063ffffffff16565b9050600061292b838761146990919063ffffffff16565b9050600073ffffffffffffffffffffffffffffffffffffffff168973ffffffffffffffffffffffffffffffffffffffff1614612a5e57600085600001600084815260200190815260200160002060008b73ffffffffffffffffffffffffffffffffffffffff1673ffffffffffffffffffffffffffffffffffffffff16815260200190815260200160002054905081811015612a0357898183856040517f03dee4c50000000000000000000000000000000000000000000000000000000081526004016129fa9493929190613f77565b60405180910390fd5b81810386600001600085815260200190815260200160002060008c73ffffffffffffffffffffffffffffffffffffffff1673ffffffffffffffffffffffffffffffffffffffff16815260200190815260200160002081905550505b600073ffffffffffffffffffffffffffffffffffffffff168873ffffffffffffffffffffffffffffffffffffffff1614612afc578085600001600084815260200190815260200160002060008a73ffffffffffffffffffffffffffffffffffffffff1673ffffffffffffffffffffffffffffffffffffffff1681526020019081526020016000206000828254612af49190613f43565b925050819055505b50508060010190506128f6565b506001845103612bc8576000612b2960008661146990919063ffffffff16565b90506000612b4160008661146990919063ffffffff16565b90508673ffffffffffffffffffffffffffffffffffffffff168873ffffffffffffffffffffffffffffffffffffffff168473ffffffffffffffffffffffffffffffffffffffff167fc3d58168c5ae7397731d063d5bbf3d657854427343f4c083240f7aacaa2d0f628585604051612bb9929190613c4d565b60405180910390a45050612c47565b8473ffffffffffffffffffffffffffffffffffffffff168673ffffffffffffffffffffffffffffffffffffffff168273ffffffffffffffffffffffffffffffffffffffff167f4a39dc06d4c0dbc64b70af90fd698a233a518aa5d07e595d983b8c0526c8f7fb8787604051612c3e929190613fbc565b60405180910390a45b505050505050565b6000604051905090565b600080fd5b600080fd5b600073ffffffffffffffffffffffffffffffffffffffff82169050919050565b6000612c8e82612c63565b9050919050565b612c9e81612c83565b8114612ca957600080fd5b50565b600081359050612cbb81612c95565b92915050565b6000819050919050565b612cd481612cc1565b8114612cdf57600080fd5b50565b600081359050612cf181612ccb565b92915050565b60008060408385031215612d0e57612d0d612c59565b5b6000612d1c85828601612cac565b9250506020612d2d85828601612ce2565b9150509250929050565b612d4081612cc1565b82525050565b6000602082019050612d5b6000830184612d37565b92915050565b60007fffffffff0000000000000000000000000000000000000000000000000000000082169050919050565b612d9681612d61565b8114612da157600080fd5b50565b600081359050612db381612d8d565b92915050565b600060208284031215612dcf57612dce612c59565b5b6000612ddd84828501612da4565b91505092915050565b60008115159050919050565b612dfb81612de6565b82525050565b6000602082019050612e166000830184612df2565b92915050565b600080fd5b600080fd5b6000601f19601f8301169050919050565b7f4e487b7100000000000000000000000000000000000000000000000000000000600052604160045260246000fd5b612e6f82612e26565b810181811067ffffffffffffffff82111715612e8e57612e8d612e37565b5b80604052505050565b6000612ea1612c4f565b9050612ead8282612e66565b919050565b600067ffffffffffffffff821115612ecd57612ecc612e37565b5b612ed682612e26565b9050602081019050919050565b82818337600083830152505050565b6000612f05612f0084612eb2565b612e97565b905082815260208101848484011115612f2157612f20612e21565b5b612f2c848285612ee3565b509392505050565b600082601f830112612f4957612f48612e1c565b5b8135612f59848260208601612ef2565b91505092915050565b600060208284031215612f7857612f77612c59565b5b600082013567ffffffffffffffff811115612f9657612f95612c5e565b5b612fa284828501612f34565b91505092915050565b600060208284031215612fc157612fc0612c59565b5b6000612fcf84828501612ce2565b91505092915050565b600081519050919050565b600082825260208201905092915050565b60005b83811015613012578082015181840152602081019050612ff7565b60008484015250505050565b600061302982612fd8565b6130338185612fe3565b9350613043818560208601612ff4565b61304c81612e26565b840191505092915050565b60006020820190508181036000830152613071818461301e565b905092915050565b600067ffffffffffffffff82111561309457613093612e37565b5b602082029050602081019050919050565b600080fd5b60006130bd6130b884613079565b612e97565b905080838252602082019050602084028301858111156130e0576130df6130a5565b5b835b8181101561310957806130f58882612ce2565b8452602084019350506020810190506130e2565b5050509392505050565b600082601f83011261312857613127612e1c565b5b81356131388482602086016130aa565b91505092915050565b600067ffffffffffffffff82111561315c5761315b612e37565b5b61316582612e26565b9050602081019050919050565b600061318561318084613141565b612e97565b9050828152602081018484840111156131a1576131a0612e21565b5b6131ac848285612ee3565b509392505050565b600082601f8301126131c9576131c8612e1c565b5b81356131d9848260208601613172565b91505092915050565b600080600080608085870312156131fc576131fb612c59565b5b600061320a87828801612cac565b945050602085013567ffffffffffffffff81111561322b5761322a612c5e565b5b61323787828801613113565b935050604085013567ffffffffffffffff81111561325857613257612c5e565b5b61326487828801613113565b925050606085013567ffffffffffffffff81111561328557613284612c5e565b5b613291878288016131b4565b91505092959194509250565b600080600080600060a086880312156132b9576132b8612c59565b5b60006132c788828901612cac565b95505060206132d888828901612cac565b945050604086013567ffffffffffffffff8111156132f9576132f8612c5e565b5b61330588828901613113565b935050606086013567ffffffffffffffff81111561332657613325612c5e565b5b61333288828901613113565b925050608086013567ffffffffffffffff81111561335357613352612c5e565b5b61335f888289016131b4565b9150509295509295909350565b61337581612c83565b82525050565b6000602082019050613390600083018461336c565b92915050565b600067ffffffffffffffff8211156133b1576133b0612e37565b5b602082029050602081019050919050565b60006133d56133d084613396565b612e97565b905080838252602082019050602084028301858111156133f8576133f76130a5565b5b835b81811015613421578061340d8882612cac565b8452602084019350506020810190506133fa565b5050509392505050565b600082601f8301126134405761343f612e1c565b5b81356134508482602086016133c2565b91505092915050565b600080604083850312156134705761346f612c59565b5b600083013567ffffffffffffffff81111561348e5761348d612c5e565b5b61349a8582860161342b565b925050602083013567ffffffffffffffff8111156134bb576134ba612c5e565b5b6134c785828601613113565b9150509250929050565b600081519050919050565b600082825260208201905092915050565b6000819050602082019050919050565b61350681612cc1565b82525050565b600061351883836134fd565b60208301905092915050565b6000602082019050919050565b600061353c826134d1565b61354681856134dc565b9350613551836134ed565b8060005b83811015613582578151613569888261350c565b975061357483613524565b925050600181019050613555565b5085935050505092915050565b600060208201905081810360008301526135a98184613531565b905092915050565b600080604083850312156135c8576135c7612c59565b5b60006135d685828601612cac565b925050602083013567ffffffffffffffff8111156135f7576135f6612c5e565b5b613603858286016131b4565b9150509250929050565b6000819050919050565b6136208161360d565b82525050565b600060208201905061363b6000830184613617565b92915050565b6000806000806080858703121561365b5761365a612c59565b5b600061366987828801612cac565b945050602061367a87828801612ce2565b935050604061368b87828801612ce2565b925050606085013567ffffffffffffffff8111156136ac576136ab612c5e565b5b6136b8878288016131b4565b91505092959194509250565b6136cd81612de6565b81146136d857600080fd5b50565b6000813590506136ea816136c4565b92915050565b6000806040838503121561370757613706612c59565b5b600061371585828601612cac565b9250506020613726858286016136db565b9150509250929050565b60006020828403121561374657613745612c59565b5b600061375484828501612cac565b91505092915050565b6000806040838503121561377457613773612c59565b5b600061378285828601612cac565b925050602061379385828601612cac565b9150509250929050565b600080600080600060a086880312156137b9576137b8612c59565b5b60006137c788828901612cac565b95505060206137d888828901612cac565b94505060406137e988828901612ce2565b93505060606137fa88828901612ce2565b925050608086013567ffffffffffffffff81111561381b5761381a612c5e565b5b613827888289016131b4565b9150509295509295909350565b7f4e487b7100000000000000000000000000000000000000000000000000000000600052602260045260246000fd5b6000600282049050600182168061387b57607f821691505b60208210810361388e5761388d613834565b5b50919050565b60008190508160005260206000209050919050565b60006020601f8301049050919050565b600082821b905092915050565b6000600883026138f67fffffffffffffffffffffffffffffffffffffffffffffffffffffffffffffffff826138b9565b61390086836138b9565b95508019841693508086168417925050509392505050565b6000819050919050565b600061393d61393861393384612cc1565b613918565b612cc1565b9050919050565b6000819050919050565b61395783613922565b61396b61396382613944565b8484546138c6565b825550505050565b600090565b613980613973565b61398b81848461394e565b505050565b5b818110156139af576139a4600082613978565b600181019050613991565b5050565b601f8211156139f4576139c581613894565b6139ce846138a9565b810160208510156139dd578190505b6139f16139e9856138a9565b830182613990565b50505b505050565b600082821c905092915050565b6000613a17600019846008026139f9565b1980831691505092915050565b6000613a308383613a06565b9150826002028217905092915050565b613a4982612fd8565b67ffffffffffffffff811115613a6257613a61612e37565b5b613a6c8254613863565b613a778282856139b3565b600060209050601f831160018114613aaa5760008415613a98578287015190505b613aa28582613a24565b865550613b0a565b601f198416613ab886613894565b60005b82811015613ae057848901518255600182019150602085019450602081019050613abb565b86831015613afd5784890151613af9601f891682613a06565b8355505b6001600288020188555050505b505050505050565b600081905092915050565b60008154613b2a81613863565b613b348186613b12565b94506001821660008114613b4f5760018114613b6457613b97565b60ff1983168652811515820286019350613b97565b613b6d85613894565b60005b83811015613b8f57815481890152600182019150602081019050613b70565b838801955050505b50505092915050565b6000613bab82612fd8565b613bb58185613b12565b9350613bc5818560208601612ff4565b80840191505092915050565b6000613bdd8285613b1d565b9150613be98284613ba0565b91508190509392505050565b7f4e487b7100000000000000000000000000000000000000000000000000000000600052603260045260246000fd5b6000604082019050613c39600083018561336c565b613c46602083018461336c565b9392505050565b6000604082019050613c626000830185612d37565b613c6f6020830184612d37565b9392505050565b6000819050919050565b600067ffffffffffffffff82169050919050565b6000613caf613caa613ca584613c76565b613918565b613c80565b9050919050565b613cbf81613c94565b82525050565b6000602082019050613cda6000830184613cb6565b92915050565b7f4e487b7100000000000000000000000000000000000000000000000000000000600052601260045260246000fd5b613d188161360d565b8114613d2357600080fd5b50565b600081519050613d3581613d0f565b92915050565b600060208284031215613d5157613d50612c59565b5b6000613d5f84828501613d26565b91505092915050565b600081519050919050565b600082825260208201905092915050565b6000613d8f82613d68565b613d998185613d73565b9350613da9818560208601612ff4565b613db281612e26565b840191505092915050565b600060a082019050613dd2600083018861336c565b613ddf602083018761336c565b613dec6040830186612d37565b613df96060830185612d37565b8181036080830152613e0b8184613d84565b90509695505050505050565b600081519050613e2681612d8d565b92915050565b600060208284031215613e4257613e41612c59565b5b6000613e5084828501613e17565b91505092915050565b600060a082019050613e6e600083018861336c565b613e7b602083018761336c565b8181036040830152613e8d8186613531565b90508181036060830152613ea18185613531565b90508181036080830152613eb58184613d84565b90509695505050505050565b600081905092915050565b6000613ed782613d68565b613ee18185613ec1565b9350613ef1818560208601612ff4565b80840191505092915050565b6000613f098284613ecc565b915081905092915050565b7f4e487b7100000000000000000000000000000000000000000000000000000000600052601160045260246000fd5b6000613f4e82612cc1565b9150613f5983612cc1565b9250828201905080821115613f7157613f70613f14565b5b92915050565b6000608082019050613f8c600083018761336c565b613f996020830186612d37565b613fa66040830185612d37565b613fb36060830184612d37565b95945050505050565b60006040820190508181036000830152613fd68185613531565b90508181036020830152613fea8184613531565b9050939250505056fea2646970667358221220a62c7e65c208625313518bc224f67b05089a2f8b1c4983eb7ff76248a42e1b6f64736f6c634300081c0033","opcodes":"PUSH1 0xA0 PUSH1 0x40 MSTORE ADDRESS PUSH20 0xFFFFFFFFFFFFFFFFFFFFFFFFFFFFFFFFFFFFFFFF AND PUSH1 0x80 SWAP1 PUSH20 0xFFFFFFFFFFFFFFFFFFFFFFFFFFFFFFFFFFFFFFFF AND DUP2 MSTORE POP CALLVALUE DUP1 ISZERO PUSH2 0x43 JUMPI PUSH1 0x0 DUP1 REVERT JUMPDEST POP PUSH2 0x52 PUSH2 0x57 PUSH1 0x20 SHL PUSH1 0x20 SHR JUMP JUMPDEST PUSH2 0x1DE JUMP JUMPDEST PUSH1 0x0 PUSH2 0x67 PUSH2 0x15B PUSH1 0x20 SHL PUSH1 0x20 SHR JUMP JUMPDEST SWAP1 POP DUP1 PUSH1 0x0 ADD PUSH1 0x8 SWAP1 SLOAD SWAP1 PUSH2 0x100 EXP SWAP1 DIV PUSH1 0xFF AND ISZERO PUSH2 0xB2 JUMPI PUSH1 0x40 MLOAD PUSH32 0xF92EE8A900000000000000000000000000000000000000000000000000000000 DUP2 MSTORE PUSH1 0x4 ADD PUSH1 0x40 MLOAD DUP1 SWAP2 SUB SWAP1 REVERT JUMPDEST PUSH8 0xFFFFFFFFFFFFFFFF DUP1 AND DUP2 PUSH1 0x0 ADD PUSH1 0x0 SWAP1 SLOAD SWAP1 PUSH2 0x100 EXP SWAP1 DIV PUSH8 0xFFFFFFFFFFFFFFFF AND PUSH8 0xFFFFFFFFFFFFFFFF AND EQ PUSH2 0x158 JUMPI PUSH8 0xFFFFFFFFFFFFFFFF DUP2 PUSH1 0x0 ADD PUSH1 0x0 PUSH2 0x100 EXP DUP2 SLOAD DUP2 PUSH8 0xFFFFFFFFFFFFFFFF MUL NOT AND SWAP1 DUP4 PUSH8 0xFFFFFFFFFFFFFFFF AND MUL OR SWAP1 SSTORE POP PUSH32 0xC7F505B2F371AE2175EE4913F4499E1F2633A7B5936321EED1CDAEB6115181D2 PUSH8 0xFFFFFFFFFFFFFFFF PUSH1 0x40 MLOAD PUSH2 0x14F SWAP2 SWAP1 PUSH2 0x1C3 JUMP JUMPDEST PUSH1 0x40 MLOAD DUP1 SWAP2 SUB SWAP1 LOG1 JUMPDEST POP JUMP JUMPDEST PUSH1 0x0 DUP1 PUSH2 0x16C PUSH2 0x175 PUSH1 0x20 SHL PUSH1 0x20 SHR JUMP JUMPDEST SWAP1 POP DUP1 SWAP2 POP POP SWAP1 JUMP JUMPDEST PUSH1 0x0 PUSH32 0xF0C57E16840DF040F15088DC2F81FE391C3923BEC73E23A9662EFC9C229C6A00 PUSH1 0x0 SHL SWAP1 POP SWAP1 JUMP JUMPDEST PUSH1 0x0 PUSH8 0xFFFFFFFFFFFFFFFF DUP3 AND SWAP1 POP SWAP2 SWAP1 POP JUMP JUMPDEST PUSH2 0x1BD DUP2 PUSH2 0x1A0 JUMP JUMPDEST DUP3 MSTORE POP POP JUMP JUMPDEST PUSH1 0x0 PUSH1 0x20 DUP3 ADD SWAP1 POP PUSH2 0x1D8 PUSH1 0x0 DUP4 ADD DUP5 PUSH2 0x1B4 JUMP JUMPDEST SWAP3 SWAP2 POP POP JUMP JUMPDEST PUSH1 0x80 MLOAD PUSH2 0x4029 PUSH2 0x207 PUSH1 0x0 CODECOPY PUSH1 0x0 DUP2 DUP2 PUSH2 0x147F ADD MSTORE DUP2 DUP2 PUSH2 0x14D4 ADD MSTORE PUSH2 0x168F ADD MSTORE PUSH2 0x4029 PUSH1 0x0 RETURN INVALID PUSH1 0x80 PUSH1 0x40 MSTORE PUSH1 0x4 CALLDATASIZE LT PUSH2 0x165 JUMPI PUSH1 0x0 CALLDATALOAD PUSH1 0xE0 SHR DUP1 PUSH4 0x52D1902D GT PUSH2 0xD1 JUMPI DUP1 PUSH4 0xA22CB465 GT PUSH2 0x8A JUMPI DUP1 PUSH4 0xC4D66DE8 GT PUSH2 0x64 JUMPI DUP1 PUSH4 0xC4D66DE8 EQ PUSH2 0x51A JUMPI DUP1 PUSH4 0xE985E9C5 EQ PUSH2 0x543 JUMPI DUP1 PUSH4 0xF242432A EQ PUSH2 0x580 JUMPI DUP1 PUSH4 0xF2FDE38B EQ PUSH2 0x5A9 JUMPI PUSH2 0x165 JUMP JUMPDEST DUP1 PUSH4 0xA22CB465 EQ PUSH2 0x489 JUMPI DUP1 PUSH4 0xAD3CB1CC EQ PUSH2 0x4B2 JUMPI DUP1 PUSH4 0xBD85B039 EQ PUSH2 0x4DD JUMPI PUSH2 0x165 JUMP JUMPDEST DUP1 PUSH4 0x52D1902D EQ PUSH2 0x3B1 JUMPI DUP1 PUSH4 0x5C975ABB EQ PUSH2 0x3DC JUMPI DUP1 PUSH4 0x715018A6 EQ PUSH2 0x407 JUMPI DUP1 PUSH4 0x731133E9 EQ PUSH2 0x41E JUMPI DUP1 PUSH4 0x8456CB59 EQ PUSH2 0x447 JUMPI DUP1 PUSH4 0x8DA5CB5B EQ PUSH2 0x45E JUMPI PUSH2 0x165 JUMP JUMPDEST DUP1 PUSH4 0x2EB2C2D6 GT PUSH2 0x123 JUMPI DUP1 PUSH4 0x2EB2C2D6 EQ PUSH2 0x29E JUMPI DUP1 PUSH4 0x2FAA69A8 EQ PUSH2 0x2C7 JUMPI DUP1 PUSH4 0x3F4BA83A EQ PUSH2 0x304 JUMPI DUP1 PUSH4 0x4E1273F4 EQ PUSH2 0x31B JUMPI DUP1 PUSH4 0x4F1EF286 EQ PUSH2 0x358 JUMPI DUP1 PUSH4 0x4F558E79 EQ PUSH2 0x374 JUMPI PUSH2 0x165 JUMP JUMPDEST DUP1 PUSH3 0xFDD58E EQ PUSH2 0x16A JUMPI DUP1 PUSH4 0x1FFC9A7 EQ PUSH2 0x1A7 JUMPI DUP1 PUSH4 0x2FE5305 EQ PUSH2 0x1E4 JUMPI DUP1 PUSH4 0xE89341C EQ PUSH2 0x20D JUMPI DUP1 PUSH4 0x18160DDD EQ PUSH2 0x24A JUMPI DUP1 PUSH4 0x1F7FDFFA EQ PUSH2 0x275 JUMPI JUMPDEST PUSH1 0x0 DUP1 REVERT JUMPDEST CALLVALUE DUP1 ISZERO PUSH2 0x176 JUMPI PUSH1 0x0 DUP1 REVERT JUMPDEST POP PUSH2 0x191 PUSH1 0x4 DUP1 CALLDATASIZE SUB DUP2 ADD SWAP1 PUSH2 0x18C SWAP2 SWAP1 PUSH2 0x2CF7 JUMP JUMPDEST PUSH2 0x5D2 JUMP JUMPDEST PUSH1 0x40 MLOAD PUSH2 0x19E SWAP2 SWAP1 PUSH2 0x2D46 JUMP JUMPDEST PUSH1 0x40 MLOAD DUP1 SWAP2 SUB SWAP1 RETURN JUMPDEST CALLVALUE DUP1 ISZERO PUSH2 0x1B3 JUMPI PUSH1 0x0 DUP1 REVERT JUMPDEST POP PUSH2 0x1CE PUSH1 0x4 DUP1 CALLDATASIZE SUB DUP2 ADD SWAP1 PUSH2 0x1C9 SWAP2 SWAP1 PUSH2 0x2DB9 JUMP JUMPDEST PUSH2 0x63B JUMP JUMPDEST PUSH1 0x40 MLOAD PUSH2 0x1DB SWAP2 SWAP1 PUSH2 0x2E01 JUMP JUMPDEST PUSH1 0x40 MLOAD DUP1 SWAP2 SUB SWAP1 RETURN JUMPDEST CALLVALUE DUP1 ISZERO PUSH2 0x1F0 JUMPI PUSH1 0x0 DUP1 REVERT JUMPDEST POP PUSH2 0x20B PUSH1 0x4 DUP1 CALLDATASIZE SUB DUP2 ADD SWAP1 PUSH2 0x206 SWAP2 SWAP1 PUSH2 0x2F62 JUMP JUMPDEST PUSH2 0x71D JUMP JUMPDEST STOP JUMPDEST CALLVALUE DUP1 ISZERO PUSH2 0x219 JUMPI PUSH1 0x0 DUP1 REVERT JUMPDEST POP PUSH2 0x234 PUSH1 0x4 DUP1 CALLDATASIZE SUB DUP2 ADD SWAP1 PUSH2 0x22F SWAP2 SWAP1 PUSH2 0x2FAB JUMP JUMPDEST PUSH2 0x738 JUMP JUMPDEST PUSH1 0x40 MLOAD PUSH2 0x241 SWAP2 SWAP1 PUSH2 0x3057 JUMP JUMPDEST PUSH1 0x40 MLOAD DUP1 SWAP2 SUB SWAP1 RETURN JUMPDEST CALLVALUE DUP1 ISZERO PUSH2 0x256 JUMPI PUSH1 0x0 DUP1 REVERT JUMPDEST POP PUSH2 0x25F PUSH2 0x76C JUMP JUMPDEST PUSH1 0x40 MLOAD PUSH2 0x26C SWAP2 SWAP1 PUSH2 0x2D46 JUMP JUMPDEST PUSH1 0x40 MLOAD DUP1 SWAP2 SUB SWAP1 RETURN JUMPDEST CALLVALUE DUP1 ISZERO PUSH2 0x281 JUMPI PUSH1 0x0 DUP1 REVERT JUMPDEST POP PUSH2 0x29C PUSH1 0x4 DUP1 CALLDATASIZE SUB DUP2 ADD SWAP1 PUSH2 0x297 SWAP2 SWAP1 PUSH2 0x31E2 JUMP JUMPDEST PUSH2 0x784 JUMP JUMPDEST STOP JUMPDEST CALLVALUE DUP1 ISZERO PUSH2 0x2AA JUMPI PUSH1 0x0 DUP1 REVERT JUMPDEST POP PUSH2 0x2C5 PUSH1 0x4 DUP1 CALLDATASIZE SUB DUP2 ADD SWAP1 PUSH2 0x2C0 SWAP2 SWAP1 PUSH2 0x329D JUMP JUMPDEST PUSH2 0x89C JUMP JUMPDEST STOP JUMPDEST CALLVALUE DUP1 ISZERO PUSH2 0x2D3 JUMPI PUSH1 0x0 DUP1 REVERT JUMPDEST POP PUSH2 0x2EE PUSH1 0x4 DUP1 CALLDATASIZE SUB DUP2 ADD SWAP1 PUSH2 0x2E9 SWAP2 SWAP1 PUSH2 0x2FAB JUMP JUMPDEST PUSH2 0x944 JUMP JUMPDEST PUSH1 0x40 MLOAD PUSH2 0x2FB SWAP2 SWAP1 PUSH2 0x337B JUMP JUMPDEST PUSH1 0x40 MLOAD DUP1 SWAP2 SUB SWAP1 RETURN JUMPDEST CALLVALUE DUP1 ISZERO PUSH2 0x310 JUMPI PUSH1 0x0 DUP1 REVERT JUMPDEST POP PUSH2 0x319 PUSH2 0x977 JUMP JUMPDEST STOP JUMPDEST CALLVALUE DUP1 ISZERO PUSH2 0x327 JUMPI PUSH1 0x0 DUP1 REVERT JUMPDEST POP PUSH2 0x342 PUSH1 0x4 DUP1 CALLDATASIZE SUB DUP2 ADD SWAP1 PUSH2 0x33D SWAP2 SWAP1 PUSH2 0x3459 JUMP JUMPDEST PUSH2 0x989 JUMP JUMPDEST PUSH1 0x40 MLOAD PUSH2 0x34F SWAP2 SWAP1 PUSH2 0x358F JUMP JUMPDEST PUSH1 0x40 MLOAD DUP1 SWAP2 SUB SWAP1 RETURN JUMPDEST PUSH2 0x372 PUSH1 0x4 DUP1 CALLDATASIZE SUB DUP2 ADD SWAP1 PUSH2 0x36D SWAP2 SWAP1 PUSH2 0x35B1 JUMP JUMPDEST PUSH2 0xA92 JUMP JUMPDEST STOP JUMPDEST CALLVALUE DUP1 ISZERO PUSH2 0x380 JUMPI PUSH1 0x0 DUP1 REVERT JUMPDEST POP PUSH2 0x39B PUSH1 0x4 DUP1 CALLDATASIZE SUB DUP2 ADD SWAP1 PUSH2 0x396 SWAP2 SWAP1 PUSH2 0x2FAB JUMP JUMPDEST PUSH2 0xAB1 JUMP JUMPDEST PUSH1 0x40 MLOAD PUSH2 0x3A8 SWAP2 SWAP1 PUSH2 0x2E01 JUMP JUMPDEST PUSH1 0x40 MLOAD DUP1 SWAP2 SUB SWAP1 RETURN JUMPDEST CALLVALUE DUP1 ISZERO PUSH2 0x3BD JUMPI PUSH1 0x0 DUP1 REVERT JUMPDEST POP PUSH2 0x3C6 PUSH2 0xAC5 JUMP JUMPDEST PUSH1 0x40 MLOAD PUSH2 0x3D3 SWAP2 SWAP1 PUSH2 0x3626 JUMP JUMPDEST PUSH1 0x40 MLOAD DUP1 SWAP2 SUB SWAP1 RETURN JUMPDEST CALLVALUE DUP1 ISZERO PUSH2 0x3E8 JUMPI PUSH1 0x0 DUP1 REVERT JUMPDEST POP PUSH2 0x3F1 PUSH2 0xAF8 JUMP JUMPDEST PUSH1 0x40 MLOAD PUSH2 0x3FE SWAP2 SWAP1 PUSH2 0x2E01 JUMP JUMPDEST PUSH1 0x40 MLOAD DUP1 SWAP2 SUB SWAP1 RETURN JUMPDEST CALLVALUE DUP1 ISZERO PUSH2 0x413 JUMPI PUSH1 0x0 DUP1 REVERT JUMPDEST POP PUSH2 0x41C PUSH2 0xB1D JUMP JUMPDEST STOP JUMPDEST CALLVALUE DUP1 ISZERO PUSH2 0x42A JUMPI PUSH1 0x0 DUP1 REVERT JUMPDEST POP PUSH2 0x445 PUSH1 0x4 DUP1 CALLDATASIZE SUB DUP2 ADD SWAP1 PUSH2 0x440 SWAP2 SWAP1 PUSH2 0x3641 JUMP JUMPDEST PUSH2 0xB31 JUMP JUMPDEST STOP JUMPDEST CALLVALUE DUP1 ISZERO PUSH2 0x453 JUMPI PUSH1 0x0 DUP1 REVERT JUMPDEST POP PUSH2 0x45C PUSH2 0xBFB JUMP JUMPDEST STOP JUMPDEST CALLVALUE DUP1 ISZERO PUSH2 0x46A JUMPI PUSH1 0x0 DUP1 REVERT JUMPDEST POP PUSH2 0x473 PUSH2 0xC0D JUMP JUMPDEST PUSH1 0x40 MLOAD PUSH2 0x480 SWAP2 SWAP1 PUSH2 0x337B JUMP JUMPDEST PUSH1 0x40 MLOAD DUP1 SWAP2 SUB SWAP1 RETURN JUMPDEST CALLVALUE DUP1 ISZERO PUSH2 0x495 JUMPI PUSH1 0x0 DUP1 REVERT JUMPDEST POP PUSH2 0x4B0 PUSH1 0x4 DUP1 CALLDATASIZE SUB DUP2 ADD SWAP1 PUSH2 0x4AB SWAP2 SWAP1 PUSH2 0x36F0 JUMP JUMPDEST PUSH2 0xC45 JUMP JUMPDEST STOP JUMPDEST CALLVALUE DUP1 ISZERO PUSH2 0x4BE JUMPI PUSH1 0x0 DUP1 REVERT JUMPDEST POP PUSH2 0x4C7 PUSH2 0xC5B JUMP JUMPDEST PUSH1 0x40 MLOAD PUSH2 0x4D4 SWAP2 SWAP1 PUSH2 0x3057 JUMP JUMPDEST PUSH1 0x40 MLOAD DUP1 SWAP2 SUB SWAP1 RETURN JUMPDEST CALLVALUE DUP1 ISZERO PUSH2 0x4E9 JUMPI PUSH1 0x0 DUP1 REVERT JUMPDEST POP PUSH2 0x504 PUSH1 0x4 DUP1 CALLDATASIZE SUB DUP2 ADD SWAP1 PUSH2 0x4FF SWAP2 SWAP1 PUSH2 0x2FAB JUMP JUMPDEST PUSH2 0xC94 JUMP JUMPDEST PUSH1 0x40 MLOAD PUSH2 0x511 SWAP2 SWAP1 PUSH2 0x2D46 JUMP JUMPDEST PUSH1 0x40 MLOAD DUP1 SWAP2 SUB SWAP1 RETURN JUMPDEST CALLVALUE DUP1 ISZERO PUSH2 0x526 JUMPI PUSH1 0x0 DUP1 REVERT JUMPDEST POP PUSH2 0x541 PUSH1 0x4 DUP1 CALLDATASIZE SUB DUP2 ADD SWAP1 PUSH2 0x53C SWAP2 SWAP1 PUSH2 0x3730 JUMP JUMPDEST PUSH2 0xCBF JUMP JUMPDEST STOP JUMPDEST CALLVALUE DUP1 ISZERO PUSH2 0x54F JUMPI PUSH1 0x0 DUP1 REVERT JUMPDEST POP PUSH2 0x56A PUSH1 0x4 DUP1 CALLDATASIZE SUB DUP2 ADD SWAP1 PUSH2 0x565 SWAP2 SWAP1 PUSH2 0x375D JUMP JUMPDEST PUSH2 0xE7E JUMP JUMPDEST PUSH1 0x40 MLOAD PUSH2 0x577 SWAP2 SWAP1 PUSH2 0x2E01 JUMP JUMPDEST PUSH1 0x40 MLOAD DUP1 SWAP2 SUB SWAP1 RETURN JUMPDEST CALLVALUE DUP1 ISZERO PUSH2 0x58C JUMPI PUSH1 0x0 DUP1 REVERT JUMPDEST POP PUSH2 0x5A7 PUSH1 0x4 DUP1 CALLDATASIZE SUB DUP2 ADD SWAP1 PUSH2 0x5A2 SWAP2 SWAP1 PUSH2 0x379D JUMP JUMPDEST PUSH2 0xF20 JUMP JUMPDEST STOP JUMPDEST CALLVALUE DUP1 ISZERO PUSH2 0x5B5 JUMPI PUSH1 0x0 DUP1 REVERT JUMPDEST POP PUSH2 0x5D0 PUSH1 0x4 DUP1 CALLDATASIZE SUB DUP2 ADD SWAP1 PUSH2 0x5CB SWAP2 SWAP1 PUSH2 0x3730 JUMP JUMPDEST PUSH2 0xFC8 JUMP JUMPDEST STOP JUMPDEST PUSH1 0x0 DUP1 PUSH2 0x5DD PUSH2 0x104E JUMP JUMPDEST SWAP1 POP DUP1 PUSH1 0x0 ADD PUSH1 0x0 DUP5 DUP2 MSTORE PUSH1 0x20 ADD SWAP1 DUP2 MSTORE PUSH1 0x20 ADD PUSH1 0x0 KECCAK256 PUSH1 0x0 DUP6 PUSH20 0xFFFFFFFFFFFFFFFFFFFFFFFFFFFFFFFFFFFFFFFF AND PUSH20 0xFFFFFFFFFFFFFFFFFFFFFFFFFFFFFFFFFFFFFFFF AND DUP2 MSTORE PUSH1 0x20 ADD SWAP1 DUP2 MSTORE PUSH1 0x20 ADD PUSH1 0x0 KECCAK256 SLOAD SWAP2 POP POP SWAP3 SWAP2 POP POP JUMP JUMPDEST PUSH1 0x0 PUSH32 0xD9B67A2600000000000000000000000000000000000000000000000000000000 PUSH28 0xFFFFFFFFFFFFFFFFFFFFFFFFFFFFFFFFFFFFFFFFFFFFFFFFFFFFFFFF NOT AND DUP3 PUSH28 0xFFFFFFFFFFFFFFFFFFFFFFFFFFFFFFFFFFFFFFFFFFFFFFFFFFFFFFFF NOT AND EQ DUP1 PUSH2 0x706 JUMPI POP PUSH32 0xE89341C00000000000000000000000000000000000000000000000000000000 PUSH28 0xFFFFFFFFFFFFFFFFFFFFFFFFFFFFFFFFFFFFFFFFFFFFFFFFFFFFFFFF NOT AND DUP3 PUSH28 0xFFFFFFFFFFFFFFFFFFFFFFFFFFFFFFFFFFFFFFFFFFFFFFFFFFFFFFFF NOT AND EQ JUMPDEST DUP1 PUSH2 0x716 JUMPI POP PUSH2 0x715 DUP3 PUSH2 0x1076 JUMP JUMPDEST JUMPDEST SWAP1 POP SWAP2 SWAP1 POP JUMP JUMPDEST PUSH2 0x725 PUSH2 0x10E0 JUMP JUMPDEST DUP1 PUSH1 0x1 SWAP1 DUP2 PUSH2 0x734 SWAP2 SWAP1 PUSH2 0x3A40 JUMP JUMPDEST POP POP JUMP JUMPDEST PUSH1 0x60 PUSH1 0x1 PUSH2 0x745 DUP4 PUSH2 0x1167 JUMP JUMPDEST PUSH1 0x40 MLOAD PUSH1 0x20 ADD PUSH2 0x756 SWAP3 SWAP2 SWAP1 PUSH2 0x3BD1 JUMP JUMPDEST PUSH1 0x40 MLOAD PUSH1 0x20 DUP2 DUP4 SUB SUB DUP2 MSTORE SWAP1 PUSH1 0x40 MSTORE SWAP1 POP SWAP2 SWAP1 POP JUMP JUMPDEST PUSH1 0x0 DUP1 PUSH2 0x777 PUSH2 0x1235 JUMP JUMPDEST SWAP1 POP DUP1 PUSH1 0x1 ADD SLOAD SWAP2 POP POP SWAP1 JUMP JUMPDEST PUSH1 0x0 JUMPDEST DUP4 MLOAD DUP2 LT ISZERO PUSH2 0x889 JUMPI PUSH1 0x0 PUSH20 0xFFFFFFFFFFFFFFFFFFFFFFFFFFFFFFFFFFFFFFFF AND PUSH1 0x0 DUP1 DUP7 DUP5 DUP2 MLOAD DUP2 LT PUSH2 0x7BE JUMPI PUSH2 0x7BD PUSH2 0x3BF5 JUMP JUMPDEST JUMPDEST PUSH1 0x20 MUL PUSH1 0x20 ADD ADD MLOAD DUP2 MSTORE PUSH1 0x20 ADD SWAP1 DUP2 MSTORE PUSH1 0x20 ADD PUSH1 0x0 KECCAK256 PUSH1 0x0 SWAP1 SLOAD SWAP1 PUSH2 0x100 EXP SWAP1 DIV PUSH20 0xFFFFFFFFFFFFFFFFFFFFFFFFFFFFFFFFFFFFFFFF AND PUSH20 0xFFFFFFFFFFFFFFFFFFFFFFFFFFFFFFFFFFFFFFFF AND SUB PUSH2 0x87C JUMPI DUP5 PUSH1 0x0 DUP1 DUP7 DUP5 DUP2 MLOAD DUP2 LT PUSH2 0x827 JUMPI PUSH2 0x826 PUSH2 0x3BF5 JUMP JUMPDEST JUMPDEST PUSH1 0x20 MUL PUSH1 0x20 ADD ADD MLOAD DUP2 MSTORE PUSH1 0x20 ADD SWAP1 DUP2 MSTORE PUSH1 0x20 ADD PUSH1 0x0 KECCAK256 PUSH1 0x0 PUSH2 0x100 EXP DUP2 SLOAD DUP2 PUSH20 0xFFFFFFFFFFFFFFFFFFFFFFFFFFFFFFFFFFFFFFFF MUL NOT AND SWAP1 DUP4 PUSH20 0xFFFFFFFFFFFFFFFFFFFFFFFFFFFFFFFFFFFFFFFF AND MUL OR SWAP1 SSTORE POP JUMPDEST DUP1 DUP1 PUSH1 0x1 ADD SWAP2 POP POP PUSH2 0x787 JUMP JUMPDEST POP PUSH2 0x896 DUP5 DUP5 DUP5 DUP5 PUSH2 0x125D JUMP JUMPDEST POP POP POP POP JUMP JUMPDEST PUSH1 0x0 PUSH2 0x8A6 PUSH2 0x12E3 JUMP JUMPDEST SWAP1 POP DUP1 PUSH20 0xFFFFFFFFFFFFFFFFFFFFFFFFFFFFFFFFFFFFFFFF AND DUP7 PUSH20 0xFFFFFFFFFFFFFFFFFFFFFFFFFFFFFFFFFFFFFFFF AND EQ ISZERO DUP1 ISZERO PUSH2 0x8EB JUMPI POP PUSH2 0x8E9 DUP7 DUP3 PUSH2 0xE7E JUMP JUMPDEST ISZERO JUMPDEST ISZERO PUSH2 0x92F JUMPI DUP1 DUP7 PUSH1 0x40 MLOAD PUSH32 0xE237D92200000000000000000000000000000000000000000000000000000000 DUP2 MSTORE PUSH1 0x4 ADD PUSH2 0x926 SWAP3 SWAP2 SWAP1 PUSH2 0x3C24 JUMP JUMPDEST PUSH1 0x40 MLOAD DUP1 SWAP2 SUB SWAP1 REVERT JUMPDEST PUSH2 0x93C DUP7 DUP7 DUP7 DUP7 DUP7 PUSH2 0x12EB JUMP JUMPDEST POP POP POP POP POP POP JUMP JUMPDEST PUSH1 0x0 PUSH1 0x20 MSTORE DUP1 PUSH1 0x0 MSTORE PUSH1 0x40 PUSH1 0x0 KECCAK256 PUSH1 0x0 SWAP2 POP SLOAD SWAP1 PUSH2 0x100 EXP SWAP1 DIV PUSH20 0xFFFFFFFFFFFFFFFFFFFFFFFFFFFFFFFFFFFFFFFF AND DUP2 JUMP JUMPDEST PUSH2 0x97F PUSH2 0x10E0 JUMP JUMPDEST PUSH2 0x987 PUSH2 0x13E3 JUMP JUMPDEST JUMP JUMPDEST PUSH1 0x60 DUP2 MLOAD DUP4 MLOAD EQ PUSH2 0x9D5 JUMPI DUP2 MLOAD DUP4 MLOAD PUSH1 0x40 MLOAD PUSH32 0x5B05999100000000000000000000000000000000000000000000000000000000 DUP2 MSTORE PUSH1 0x4 ADD PUSH2 0x9CC SWAP3 SWAP2 SWAP1 PUSH2 0x3C4D JUMP JUMPDEST PUSH1 0x40 MLOAD DUP1 SWAP2 SUB SWAP1 REVERT JUMPDEST PUSH1 0x0 DUP4 MLOAD PUSH8 0xFFFFFFFFFFFFFFFF DUP2 GT ISZERO PUSH2 0x9F2 JUMPI PUSH2 0x9F1 PUSH2 0x2E37 JUMP JUMPDEST JUMPDEST PUSH1 0x40 MLOAD SWAP1 DUP1 DUP3 MSTORE DUP1 PUSH1 0x20 MUL PUSH1 0x20 ADD DUP3 ADD PUSH1 0x40 MSTORE DUP1 ISZERO PUSH2 0xA20 JUMPI DUP2 PUSH1 0x20 ADD PUSH1 0x20 DUP3 MUL DUP1 CALLDATASIZE DUP4 CALLDATACOPY DUP1 DUP3 ADD SWAP2 POP POP SWAP1 POP JUMPDEST POP SWAP1 POP PUSH1 0x0 JUMPDEST DUP5 MLOAD DUP2 LT ISZERO PUSH2 0xA87 JUMPI PUSH2 0xA5D PUSH2 0xA45 DUP3 DUP8 PUSH2 0x1455 SWAP1 SWAP2 SWAP1 PUSH4 0xFFFFFFFF AND JUMP JUMPDEST PUSH2 0xA58 DUP4 DUP8 PUSH2 0x1469 SWAP1 SWAP2 SWAP1 PUSH4 0xFFFFFFFF AND JUMP JUMPDEST PUSH2 0x5D2 JUMP JUMPDEST DUP3 DUP3 DUP2 MLOAD DUP2 LT PUSH2 0xA70 JUMPI PUSH2 0xA6F PUSH2 0x3BF5 JUMP JUMPDEST JUMPDEST PUSH1 0x20 MUL PUSH1 0x20 ADD ADD DUP2 DUP2 MSTORE POP POP DUP1 PUSH1 0x1 ADD SWAP1 POP PUSH2 0xA26 JUMP JUMPDEST POP DUP1 SWAP2 POP POP SWAP3 SWAP2 POP POP JUMP JUMPDEST PUSH2 0xA9A PUSH2 0x147D JUMP JUMPDEST PUSH2 0xAA3 DUP3 PUSH2 0x1563 JUMP JUMPDEST PUSH2 0xAAD DUP3 DUP3 PUSH2 0x156E JUMP JUMPDEST POP POP JUMP JUMPDEST PUSH1 0x0 DUP1 PUSH2 0xABD DUP4 PUSH2 0xC94 JUMP JUMPDEST GT SWAP1 POP SWAP2 SWAP1 POP JUMP JUMPDEST PUSH1 0x0 PUSH2 0xACF PUSH2 0x168D JUMP JUMPDEST PUSH32 0x360894A13BA1A3210667C828492DB98DCA3E2076CC3735A920A3CA505D382BBC PUSH1 0x0 SHL SWAP1 POP SWAP1 JUMP JUMPDEST PUSH1 0x0 DUP1 PUSH2 0xB03 PUSH2 0x1714 JUMP JUMPDEST SWAP1 POP DUP1 PUSH1 0x0 ADD PUSH1 0x0 SWAP1 SLOAD SWAP1 PUSH2 0x100 EXP SWAP1 DIV PUSH1 0xFF AND SWAP2 POP POP SWAP1 JUMP JUMPDEST PUSH2 0xB25 PUSH2 0x10E0 JUMP JUMPDEST PUSH2 0xB2F PUSH1 0x0 PUSH2 0x173C JUMP JUMPDEST JUMP JUMPDEST PUSH1 0x0 PUSH20 0xFFFFFFFFFFFFFFFFFFFFFFFFFFFFFFFFFFFFFFFF AND PUSH1 0x0 DUP1 DUP6 DUP2 MSTORE PUSH1 0x20 ADD SWAP1 DUP2 MSTORE PUSH1 0x20 ADD PUSH1 0x0 KECCAK256 PUSH1 0x0 SWAP1 SLOAD SWAP1 PUSH2 0x100 EXP SWAP1 DIV PUSH20 0xFFFFFFFFFFFFFFFFFFFFFFFFFFFFFFFFFFFFFFFF AND PUSH20 0xFFFFFFFFFFFFFFFFFFFFFFFFFFFFFFFFFFFFFFFF AND SUB PUSH2 0xBE9 JUMPI DUP4 PUSH1 0x0 DUP1 DUP6 DUP2 MSTORE PUSH1 0x20 ADD SWAP1 DUP2 MSTORE PUSH1 0x20 ADD PUSH1 0x0 KECCAK256 PUSH1 0x0 PUSH2 0x100 EXP DUP2 SLOAD DUP2 PUSH20 0xFFFFFFFFFFFFFFFFFFFFFFFFFFFFFFFFFFFFFFFF MUL NOT AND SWAP1 DUP4 PUSH20 0xFFFFFFFFFFFFFFFFFFFFFFFFFFFFFFFFFFFFFFFF AND MUL OR SWAP1 SSTORE POP JUMPDEST PUSH2 0xBF5 DUP5 DUP5 DUP5 DUP5 PUSH2 0x1813 JUMP JUMPDEST POP POP POP POP JUMP JUMPDEST PUSH2 0xC03 PUSH2 0x10E0 JUMP JUMPDEST PUSH2 0xC0B PUSH2 0x18AC JUMP JUMPDEST JUMP JUMPDEST PUSH1 0x0 DUP1 PUSH2 0xC18 PUSH2 0x191E JUMP JUMPDEST SWAP1 POP DUP1 PUSH1 0x0 ADD PUSH1 0x0 SWAP1 SLOAD SWAP1 PUSH2 0x100 EXP SWAP1 DIV PUSH20 0xFFFFFFFFFFFFFFFFFFFFFFFFFFFFFFFFFFFFFFFF AND SWAP2 POP POP SWAP1 JUMP JUMPDEST PUSH2 0xC57 PUSH2 0xC50 PUSH2 0x12E3 JUMP JUMPDEST DUP4 DUP4 PUSH2 0x1946 JUMP JUMPDEST POP POP JUMP JUMPDEST PUSH1 0x40 MLOAD DUP1 PUSH1 0x40 ADD PUSH1 0x40 MSTORE DUP1 PUSH1 0x5 DUP2 MSTORE PUSH1 0x20 ADD PUSH32 0x352E302E30000000000000000000000000000000000000000000000000000000 DUP2 MSTORE POP DUP2 JUMP JUMPDEST PUSH1 0x0 DUP1 PUSH2 0xC9F PUSH2 0x1235 JUMP JUMPDEST SWAP1 POP DUP1 PUSH1 0x0 ADD PUSH1 0x0 DUP5 DUP2 MSTORE PUSH1 0x20 ADD SWAP1 DUP2 MSTORE PUSH1 0x20 ADD PUSH1 0x0 KECCAK256 SLOAD SWAP2 POP POP SWAP2 SWAP1 POP JUMP JUMPDEST PUSH1 0x0 PUSH2 0xCC9 PUSH2 0x1AC5 JUMP JUMPDEST SWAP1 POP PUSH1 0x0 DUP2 PUSH1 0x0 ADD PUSH1 0x8 SWAP1 SLOAD SWAP1 PUSH2 0x100 EXP SWAP1 DIV PUSH1 0xFF AND ISZERO SWAP1 POP PUSH1 0x0 DUP3 PUSH1 0x0 ADD PUSH1 0x0 SWAP1 SLOAD SWAP1 PUSH2 0x100 EXP SWAP1 DIV PUSH8 0xFFFFFFFFFFFFFFFF AND SWAP1 POP PUSH1 0x0 DUP1 DUP3 PUSH8 0xFFFFFFFFFFFFFFFF AND EQ DUP1 ISZERO PUSH2 0xD17 JUMPI POP DUP3 JUMPDEST SWAP1 POP PUSH1 0x0 PUSH1 0x1 DUP4 PUSH8 0xFFFFFFFFFFFFFFFF AND EQ DUP1 ISZERO PUSH2 0xD4C JUMPI POP PUSH1 0x0 ADDRESS PUSH20 0xFFFFFFFFFFFFFFFFFFFFFFFFFFFFFFFFFFFFFFFF AND EXTCODESIZE EQ JUMPDEST SWAP1 POP DUP2 ISZERO DUP1 ISZERO PUSH2 0xD5A JUMPI POP DUP1 ISZERO JUMPDEST ISZERO PUSH2 0xD91 JUMPI PUSH1 0x40 MLOAD PUSH32 0xF92EE8A900000000000000000000000000000000000000000000000000000000 DUP2 MSTORE PUSH1 0x4 ADD PUSH1 0x40 MLOAD DUP1 SWAP2 SUB SWAP1 REVERT JUMPDEST PUSH1 0x1 DUP6 PUSH1 0x0 ADD PUSH1 0x0 PUSH2 0x100 EXP DUP2 SLOAD DUP2 PUSH8 0xFFFFFFFFFFFFFFFF MUL NOT AND SWAP1 DUP4 PUSH8 0xFFFFFFFFFFFFFFFF AND MUL OR SWAP1 SSTORE POP DUP4 ISZERO PUSH2 0xDE1 JUMPI PUSH1 0x1 DUP6 PUSH1 0x0 ADD PUSH1 0x8 PUSH2 0x100 EXP DUP2 SLOAD DUP2 PUSH1 0xFF MUL NOT AND SWAP1 DUP4 ISZERO ISZERO MUL OR SWAP1 SSTORE POP JUMPDEST PUSH2 0xDF9 PUSH1 0x40 MLOAD DUP1 PUSH1 0x20 ADD PUSH1 0x40 MSTORE DUP1 PUSH1 0x0 DUP2 MSTORE POP PUSH2 0x1AD9 JUMP JUMPDEST PUSH2 0xE02 DUP7 PUSH2 0x1AED JUMP JUMPDEST PUSH2 0xE0A PUSH2 0x1B01 JUMP JUMPDEST PUSH2 0xE12 PUSH2 0x1B0B JUMP JUMPDEST PUSH2 0xE1A PUSH2 0x1B15 JUMP JUMPDEST DUP4 ISZERO PUSH2 0xE76 JUMPI PUSH1 0x0 DUP6 PUSH1 0x0 ADD PUSH1 0x8 PUSH2 0x100 EXP DUP2 SLOAD DUP2 PUSH1 0xFF MUL NOT AND SWAP1 DUP4 ISZERO ISZERO MUL OR SWAP1 SSTORE POP PUSH32 0xC7F505B2F371AE2175EE4913F4499E1F2633A7B5936321EED1CDAEB6115181D2 PUSH1 0x1 PUSH1 0x40 MLOAD PUSH2 0xE6D SWAP2 SWAP1 PUSH2 0x3CC5 JUMP JUMPDEST PUSH1 0x40 MLOAD DUP1 SWAP2 SUB SWAP1 LOG1 JUMPDEST POP POP POP POP POP POP JUMP JUMPDEST PUSH1 0x0 DUP1 PUSH2 0xE89 PUSH2 0x104E JUMP JUMPDEST SWAP1 POP DUP1 PUSH1 0x1 ADD PUSH1 0x0 DUP6 PUSH20 0xFFFFFFFFFFFFFFFFFFFFFFFFFFFFFFFFFFFFFFFF AND PUSH20 0xFFFFFFFFFFFFFFFFFFFFFFFFFFFFFFFFFFFFFFFF AND DUP2 MSTORE PUSH1 0x20 ADD SWAP1 DUP2 MSTORE PUSH1 0x20 ADD PUSH1 0x0 KECCAK256 PUSH1 0x0 DUP5 PUSH20 0xFFFFFFFFFFFFFFFFFFFFFFFFFFFFFFFFFFFFFFFF AND PUSH20 0xFFFFFFFFFFFFFFFFFFFFFFFFFFFFFFFFFFFFFFFF AND DUP2 MSTORE PUSH1 0x20 ADD SWAP1 DUP2 MSTORE PUSH1 0x20 ADD PUSH1 0x0 KECCAK256 PUSH1 0x0 SWAP1 SLOAD SWAP1 PUSH2 0x100 EXP SWAP1 DIV PUSH1 0xFF AND SWAP2 POP POP SWAP3 SWAP2 POP POP JUMP JUMPDEST PUSH1 0x0 PUSH2 0xF2A PUSH2 0x12E3 JUMP JUMPDEST SWAP1 POP DUP1 PUSH20 0xFFFFFFFFFFFFFFFFFFFFFFFFFFFFFFFFFFFFFFFF AND DUP7 PUSH20 0xFFFFFFFFFFFFFFFFFFFFFFFFFFFFFFFFFFFFFFFF AND EQ ISZERO DUP1 ISZERO PUSH2 0xF6F JUMPI POP PUSH2 0xF6D DUP7 DUP3 PUSH2 0xE7E JUMP JUMPDEST ISZERO JUMPDEST ISZERO PUSH2 0xFB3 JUMPI DUP1 DUP7 PUSH1 0x40 MLOAD PUSH32 0xE237D92200000000000000000000000000000000000000000000000000000000 DUP2 MSTORE PUSH1 0x4 ADD PUSH2 0xFAA SWAP3 SWAP2 SWAP1 PUSH2 0x3C24 JUMP JUMPDEST PUSH1 0x40 MLOAD DUP1 SWAP2 SUB SWAP1 REVERT JUMPDEST PUSH2 0xFC0 DUP7 DUP7 DUP7 DUP7 DUP7 PUSH2 0x1B1F JUMP JUMPDEST POP POP POP POP POP POP JUMP JUMPDEST PUSH2 0xFD0 PUSH2 0x10E0 JUMP JUMPDEST PUSH1 0x0 PUSH20 0xFFFFFFFFFFFFFFFFFFFFFFFFFFFFFFFFFFFFFFFF AND DUP2 PUSH20 0xFFFFFFFFFFFFFFFFFFFFFFFFFFFFFFFFFFFFFFFF AND SUB PUSH2 0x1042 JUMPI PUSH1 0x0 PUSH1 0x40 MLOAD PUSH32 0x1E4FBDF700000000000000000000000000000000000000000000000000000000 DUP2 MSTORE PUSH1 0x4 ADD PUSH2 0x1039 SWAP2 SWAP1 PUSH2 0x337B JUMP JUMPDEST PUSH1 0x40 MLOAD DUP1 SWAP2 SUB SWAP1 REVERT JUMPDEST PUSH2 0x104B DUP2 PUSH2 0x173C JUMP JUMPDEST POP JUMP JUMPDEST PUSH1 0x0 PUSH32 0x88BE536D5240C274A3B1D3A1BE54482FD9CAA294F08C62A7CDE569F49A3C4500 SWAP1 POP SWAP1 JUMP JUMPDEST PUSH1 0x0 PUSH32 0x1FFC9A700000000000000000000000000000000000000000000000000000000 PUSH28 0xFFFFFFFFFFFFFFFFFFFFFFFFFFFFFFFFFFFFFFFFFFFFFFFFFFFFFFFF NOT AND DUP3 PUSH28 0xFFFFFFFFFFFFFFFFFFFFFFFFFFFFFFFFFFFFFFFFFFFFFFFFFFFFFFFF NOT AND EQ SWAP1 POP SWAP2 SWAP1 POP JUMP JUMPDEST PUSH2 0x10E8 PUSH2 0x12E3 JUMP JUMPDEST PUSH20 0xFFFFFFFFFFFFFFFFFFFFFFFFFFFFFFFFFFFFFFFF AND PUSH2 0x1106 PUSH2 0xC0D JUMP JUMPDEST PUSH20 0xFFFFFFFFFFFFFFFFFFFFFFFFFFFFFFFFFFFFFFFF AND EQ PUSH2 0x1165 JUMPI PUSH2 0x1129 PUSH2 0x12E3 JUMP JUMPDEST PUSH1 0x40 MLOAD PUSH32 0x118CDAA700000000000000000000000000000000000000000000000000000000 DUP2 MSTORE PUSH1 0x4 ADD PUSH2 0x115C SWAP2 SWAP1 PUSH2 0x337B JUMP JUMPDEST PUSH1 0x40 MLOAD DUP1 SWAP2 SUB SWAP1 REVERT JUMPDEST JUMP JUMPDEST PUSH1 0x60 PUSH1 0x0 PUSH1 0x1 PUSH2 0x1176 DUP5 PUSH2 0x1C2A JUMP JUMPDEST ADD SWAP1 POP PUSH1 0x0 DUP2 PUSH8 0xFFFFFFFFFFFFFFFF DUP2 GT ISZERO PUSH2 0x1195 JUMPI PUSH2 0x1194 PUSH2 0x2E37 JUMP JUMPDEST JUMPDEST PUSH1 0x40 MLOAD SWAP1 DUP1 DUP3 MSTORE DUP1 PUSH1 0x1F ADD PUSH1 0x1F NOT AND PUSH1 0x20 ADD DUP3 ADD PUSH1 0x40 MSTORE DUP1 ISZERO PUSH2 0x11C7 JUMPI DUP2 PUSH1 0x20 ADD PUSH1 0x1 DUP3 MUL DUP1 CALLDATASIZE DUP4 CALLDATACOPY DUP1 DUP3 ADD SWAP2 POP POP SWAP1 POP JUMPDEST POP SWAP1 POP PUSH1 0x0 DUP3 PUSH1 0x20 ADD DUP3 ADD SWAP1 POP JUMPDEST PUSH1 0x1 ISZERO PUSH2 0x122A JUMPI DUP1 DUP1 PUSH1 0x1 SWAP1 SUB SWAP2 POP POP PUSH32 0x3031323334353637383961626364656600000000000000000000000000000000 PUSH1 0xA DUP7 MOD BYTE DUP2 MSTORE8 PUSH1 0xA DUP6 DUP2 PUSH2 0x121E JUMPI PUSH2 0x121D PUSH2 0x3CE0 JUMP JUMPDEST JUMPDEST DIV SWAP5 POP PUSH1 0x0 DUP6 SUB PUSH2 0x11D5 JUMPI JUMPDEST DUP2 SWAP4 POP POP POP POP SWAP2 SWAP1 POP JUMP JUMPDEST PUSH1 0x0 PUSH32 0x4A593662EE04D27B6A00EBB31BE7FE0C102C2ADE82A7C5D764F2DF05DC4E2800 SWAP1 POP SWAP1 JUMP JUMPDEST PUSH1 0x0 PUSH20 0xFFFFFFFFFFFFFFFFFFFFFFFFFFFFFFFFFFFFFFFF AND DUP5 PUSH20 0xFFFFFFFFFFFFFFFFFFFFFFFFFFFFFFFFFFFFFFFF AND SUB PUSH2 0x12CF JUMPI PUSH1 0x0 PUSH1 0x40 MLOAD PUSH32 0x57F447CE00000000000000000000000000000000000000000000000000000000 DUP2 MSTORE PUSH1 0x4 ADD PUSH2 0x12C6 SWAP2 SWAP1 PUSH2 0x337B JUMP JUMPDEST PUSH1 0x40 MLOAD DUP1 SWAP2 SUB SWAP1 REVERT JUMPDEST PUSH2 0x12DD PUSH1 0x0 DUP6 DUP6 DUP6 DUP6 PUSH2 0x1D7D JUMP JUMPDEST POP POP POP POP JUMP JUMPDEST PUSH1 0x0 CALLER SWAP1 POP SWAP1 JUMP JUMPDEST PUSH1 0x0 PUSH20 0xFFFFFFFFFFFFFFFFFFFFFFFFFFFFFFFFFFFFFFFF AND DUP5 PUSH20 0xFFFFFFFFFFFFFFFFFFFFFFFFFFFFFFFFFFFFFFFF AND SUB PUSH2 0x135D JUMPI PUSH1 0x0 PUSH1 0x40 MLOAD PUSH32 0x57F447CE00000000000000000000000000000000000000000000000000000000 DUP2 MSTORE PUSH1 0x4 ADD PUSH2 0x1354 SWAP2 SWAP1 PUSH2 0x337B JUMP JUMPDEST PUSH1 0x40 MLOAD DUP1 SWAP2 SUB SWAP1 REVERT JUMPDEST PUSH1 0x0 PUSH20 0xFFFFFFFFFFFFFFFFFFFFFFFFFFFFFFFFFFFFFFFF AND DUP6 PUSH20 0xFFFFFFFFFFFFFFFFFFFFFFFFFFFFFFFFFFFFFFFF AND SUB PUSH2 0x13CF JUMPI PUSH1 0x0 PUSH1 0x40 MLOAD PUSH32 0x1A8351400000000000000000000000000000000000000000000000000000000 DUP2 MSTORE PUSH1 0x4 ADD PUSH2 0x13C6 SWAP2 SWAP1 PUSH2 0x337B JUMP JUMPDEST PUSH1 0x40 MLOAD DUP1 SWAP2 SUB SWAP1 REVERT JUMPDEST PUSH2 0x13DC DUP6 DUP6 DUP6 DUP6 DUP6 PUSH2 0x1D7D JUMP JUMPDEST POP POP POP POP POP JUMP JUMPDEST PUSH2 0x13EB PUSH2 0x1E2F JUMP JUMPDEST PUSH1 0x0 PUSH2 0x13F5 PUSH2 0x1714 JUMP JUMPDEST SWAP1 POP PUSH1 0x0 DUP2 PUSH1 0x0 ADD PUSH1 0x0 PUSH2 0x100 EXP DUP2 SLOAD DUP2 PUSH1 0xFF MUL NOT AND SWAP1 DUP4 ISZERO ISZERO MUL OR SWAP1 SSTORE POP PUSH32 0x5DB9EE0A495BF2E6FF9C91A7834C1BA4FDD244A5E8AA4E537BD38AEAE4B073AA PUSH2 0x143D PUSH2 0x12E3 JUMP JUMPDEST PUSH1 0x40 MLOAD PUSH2 0x144A SWAP2 SWAP1 PUSH2 0x337B JUMP JUMPDEST PUSH1 0x40 MLOAD DUP1 SWAP2 SUB SWAP1 LOG1 POP JUMP JUMPDEST PUSH1 0x0 PUSH1 0x20 DUP3 MUL PUSH1 0x20 DUP5 ADD ADD MLOAD SWAP1 POP SWAP3 SWAP2 POP POP JUMP JUMPDEST PUSH1 0x0 PUSH1 0x20 DUP3 MUL PUSH1 0x20 DUP5 ADD ADD MLOAD SWAP1 POP SWAP3 SWAP2 POP POP JUMP JUMPDEST PUSH32 0x0 PUSH20 0xFFFFFFFFFFFFFFFFFFFFFFFFFFFFFFFFFFFFFFFF AND ADDRESS PUSH20 0xFFFFFFFFFFFFFFFFFFFFFFFFFFFFFFFFFFFFFFFF AND EQ DUP1 PUSH2 0x152A JUMPI POP PUSH32 0x0 PUSH20 0xFFFFFFFFFFFFFFFFFFFFFFFFFFFFFFFFFFFFFFFF AND PUSH2 0x1511 PUSH2 0x1E6F JUMP JUMPDEST PUSH20 0xFFFFFFFFFFFFFFFFFFFFFFFFFFFFFFFFFFFFFFFF AND EQ ISZERO JUMPDEST ISZERO PUSH2 0x1561 JUMPI PUSH1 0x40 MLOAD PUSH32 0xE07C8DBA00000000000000000000000000000000000000000000000000000000 DUP2 MSTORE PUSH1 0x4 ADD PUSH1 0x40 MLOAD DUP1 SWAP2 SUB SWAP1 REVERT JUMPDEST JUMP JUMPDEST PUSH2 0x156B PUSH2 0x10E0 JUMP JUMPDEST POP JUMP JUMPDEST DUP2 PUSH20 0xFFFFFFFFFFFFFFFFFFFFFFFFFFFFFFFFFFFFFFFF AND PUSH4 0x52D1902D PUSH1 0x40 MLOAD DUP2 PUSH4 0xFFFFFFFF AND PUSH1 0xE0 SHL DUP2 MSTORE PUSH1 0x4 ADD PUSH1 0x20 PUSH1 0x40 MLOAD DUP1 DUP4 SUB DUP2 DUP7 GAS STATICCALL SWAP3 POP POP POP DUP1 ISZERO PUSH2 0x15D6 JUMPI POP PUSH1 0x40 MLOAD RETURNDATASIZE PUSH1 0x1F NOT PUSH1 0x1F DUP3 ADD AND DUP3 ADD DUP1 PUSH1 0x40 MSTORE POP DUP2 ADD SWAP1 PUSH2 0x15D3 SWAP2 SWAP1 PUSH2 0x3D3B JUMP JUMPDEST PUSH1 0x1 JUMPDEST PUSH2 0x1617 JUMPI DUP2 PUSH1 0x40 MLOAD PUSH32 0x4C9C8CE300000000000000000000000000000000000000000000000000000000 DUP2 MSTORE PUSH1 0x4 ADD PUSH2 0x160E SWAP2 SWAP1 PUSH2 0x337B JUMP JUMPDEST PUSH1 0x40 MLOAD DUP1 SWAP2 SUB SWAP1 REVERT JUMPDEST PUSH32 0x360894A13BA1A3210667C828492DB98DCA3E2076CC3735A920A3CA505D382BBC PUSH1 0x0 SHL DUP2 EQ PUSH2 0x167E JUMPI DUP1 PUSH1 0x40 MLOAD PUSH32 0xAA1D49A400000000000000000000000000000000000000000000000000000000 DUP2 MSTORE PUSH1 0x4 ADD PUSH2 0x1675 SWAP2 SWAP1 PUSH2 0x3626 JUMP JUMPDEST PUSH1 0x40 MLOAD DUP1 SWAP2 SUB SWAP1 REVERT JUMPDEST PUSH2 0x1688 DUP4 DUP4 PUSH2 0x1EC6 JUMP JUMPDEST POP POP POP JUMP JUMPDEST PUSH32 0x0 PUSH20 0xFFFFFFFFFFFFFFFFFFFFFFFFFFFFFFFFFFFFFFFF AND ADDRESS PUSH20 0xFFFFFFFFFFFFFFFFFFFFFFFFFFFFFFFFFFFFFFFF AND EQ PUSH2 0x1712 JUMPI PUSH1 0x40 MLOAD PUSH32 0xE07C8DBA00000000000000000000000000000000000000000000000000000000 DUP2 MSTORE PUSH1 0x4 ADD PUSH1 0x40 MLOAD DUP1 SWAP2 SUB SWAP1 REVERT JUMPDEST JUMP JUMPDEST PUSH1 0x0 PUSH32 0xCD5ED15C6E187E77E9AEE88184C21F4F2182AB5827CB3B7E07FBEDCD63F03300 SWAP1 POP SWAP1 JUMP JUMPDEST PUSH1 0x0 PUSH2 0x1746 PUSH2 0x191E JUMP JUMPDEST SWAP1 POP PUSH1 0x0 DUP2 PUSH1 0x0 ADD PUSH1 0x0 SWAP1 SLOAD SWAP1 PUSH2 0x100 EXP SWAP1 DIV PUSH20 0xFFFFFFFFFFFFFFFFFFFFFFFFFFFFFFFFFFFFFFFF AND SWAP1 POP DUP3 DUP3 PUSH1 0x0 ADD PUSH1 0x0 PUSH2 0x100 EXP DUP2 SLOAD DUP2 PUSH20 0xFFFFFFFFFFFFFFFFFFFFFFFFFFFFFFFFFFFFFFFF MUL NOT AND SWAP1 DUP4 PUSH20 0xFFFFFFFFFFFFFFFFFFFFFFFFFFFFFFFFFFFFFFFF AND MUL OR SWAP1 SSTORE POP DUP3 PUSH20 0xFFFFFFFFFFFFFFFFFFFFFFFFFFFFFFFFFFFFFFFF AND DUP2 PUSH20 0xFFFFFFFFFFFFFFFFFFFFFFFFFFFFFFFFFFFFFFFF AND PUSH32 0x8BE0079C531659141344CD1FD0A4F28419497F9722A3DAAFE3B4186F6B6457E0 PUSH1 0x40 MLOAD PUSH1 0x40 MLOAD DUP1 SWAP2 SUB SWAP1 LOG3 POP POP POP JUMP JUMPDEST PUSH1 0x0 PUSH20 0xFFFFFFFFFFFFFFFFFFFFFFFFFFFFFFFFFFFFFFFF AND DUP5 PUSH20 0xFFFFFFFFFFFFFFFFFFFFFFFFFFFFFFFFFFFFFFFF AND SUB PUSH2 0x1885 JUMPI PUSH1 0x0 PUSH1 0x40 MLOAD PUSH32 0x57F447CE00000000000000000000000000000000000000000000000000000000 DUP2 MSTORE PUSH1 0x4 ADD PUSH2 0x187C SWAP2 SWAP1 PUSH2 0x337B JUMP JUMPDEST PUSH1 0x40 MLOAD DUP1 SWAP2 SUB SWAP1 REVERT JUMPDEST PUSH1 0x0 DUP1 PUSH2 0x1892 DUP6 DUP6 PUSH2 0x1F39 JUMP JUMPDEST SWAP2 POP SWAP2 POP PUSH2 0x18A4 PUSH1 0x0 DUP8 DUP5 DUP5 DUP8 PUSH2 0x1D7D JUMP JUMPDEST POP POP POP POP POP POP JUMP JUMPDEST PUSH2 0x18B4 PUSH2 0x1F69 JUMP JUMPDEST PUSH1 0x0 PUSH2 0x18BE PUSH2 0x1714 JUMP JUMPDEST SWAP1 POP PUSH1 0x1 DUP2 PUSH1 0x0 ADD PUSH1 0x0 PUSH2 0x100 EXP DUP2 SLOAD DUP2 PUSH1 0xFF MUL NOT AND SWAP1 DUP4 ISZERO ISZERO MUL OR SWAP1 SSTORE POP PUSH32 0x62E78CEA01BEE320CD4E420270B5EA74000D11B0C9F74754EBDBFC544B05A258 PUSH2 0x1906 PUSH2 0x12E3 JUMP JUMPDEST PUSH1 0x40 MLOAD PUSH2 0x1913 SWAP2 SWAP1 PUSH2 0x337B JUMP JUMPDEST PUSH1 0x40 MLOAD DUP1 SWAP2 SUB SWAP1 LOG1 POP JUMP JUMPDEST PUSH1 0x0 PUSH32 0x9016D09D72D40FDAE2FD8CEAC6B6234C7706214FD39C1CD1E609A0528C199300 SWAP1 POP SWAP1 JUMP JUMPDEST PUSH1 0x0 PUSH2 0x1950 PUSH2 0x104E JUMP JUMPDEST SWAP1 POP PUSH1 0x0 PUSH20 0xFFFFFFFFFFFFFFFFFFFFFFFFFFFFFFFFFFFFFFFF AND DUP4 PUSH20 0xFFFFFFFFFFFFFFFFFFFFFFFFFFFFFFFFFFFFFFFF AND SUB PUSH2 0x19C4 JUMPI PUSH1 0x0 PUSH1 0x40 MLOAD PUSH32 0xCED3E10000000000000000000000000000000000000000000000000000000000 DUP2 MSTORE PUSH1 0x4 ADD PUSH2 0x19BB SWAP2 SWAP1 PUSH2 0x337B JUMP JUMPDEST PUSH1 0x40 MLOAD DUP1 SWAP2 SUB SWAP1 REVERT JUMPDEST DUP2 DUP2 PUSH1 0x1 ADD PUSH1 0x0 DUP7 PUSH20 0xFFFFFFFFFFFFFFFFFFFFFFFFFFFFFFFFFFFFFFFF AND PUSH20 0xFFFFFFFFFFFFFFFFFFFFFFFFFFFFFFFFFFFFFFFF AND DUP2 MSTORE PUSH1 0x20 ADD SWAP1 DUP2 MSTORE PUSH1 0x20 ADD PUSH1 0x0 KECCAK256 PUSH1 0x0 DUP6 PUSH20 0xFFFFFFFFFFFFFFFFFFFFFFFFFFFFFFFFFFFFFFFF AND PUSH20 0xFFFFFFFFFFFFFFFFFFFFFFFFFFFFFFFFFFFFFFFF AND DUP2 MSTORE PUSH1 0x20 ADD SWAP1 DUP2 MSTORE PUSH1 0x20 ADD PUSH1 0x0 KECCAK256 PUSH1 0x0 PUSH2 0x100 EXP DUP2 SLOAD DUP2 PUSH1 0xFF MUL NOT AND SWAP1 DUP4 ISZERO ISZERO MUL OR SWAP1 SSTORE POP DUP3 PUSH20 0xFFFFFFFFFFFFFFFFFFFFFFFFFFFFFFFFFFFFFFFF AND DUP5 PUSH20 0xFFFFFFFFFFFFFFFFFFFFFFFFFFFFFFFFFFFFFFFF AND PUSH32 0x17307EAB39AB6107E8899845AD3D59BD9653F200F220920489CA2B5937696C31 DUP5 PUSH1 0x40 MLOAD PUSH2 0x1AB7 SWAP2 SWAP1 PUSH2 0x2E01 JUMP JUMPDEST PUSH1 0x40 MLOAD DUP1 SWAP2 SUB SWAP1 LOG3 POP POP POP POP JUMP JUMPDEST PUSH1 0x0 DUP1 PUSH2 0x1AD0 PUSH2 0x1FAA JUMP JUMPDEST SWAP1 POP DUP1 SWAP2 POP POP SWAP1 JUMP JUMPDEST PUSH2 0x1AE1 PUSH2 0x1FD5 JUMP JUMPDEST PUSH2 0x1AEA DUP2 PUSH2 0x2015 JUMP JUMPDEST POP JUMP JUMPDEST PUSH2 0x1AF5 PUSH2 0x1FD5 JUMP JUMPDEST PUSH2 0x1AFE DUP2 PUSH2 0x2029 JUMP JUMPDEST POP JUMP JUMPDEST PUSH2 0x1B09 PUSH2 0x1FD5 JUMP JUMPDEST JUMP JUMPDEST PUSH2 0x1B13 PUSH2 0x1FD5 JUMP JUMPDEST JUMP JUMPDEST PUSH2 0x1B1D PUSH2 0x1FD5 JUMP JUMPDEST JUMP JUMPDEST PUSH1 0x0 PUSH20 0xFFFFFFFFFFFFFFFFFFFFFFFFFFFFFFFFFFFFFFFF AND DUP5 PUSH20 0xFFFFFFFFFFFFFFFFFFFFFFFFFFFFFFFFFFFFFFFF AND SUB PUSH2 0x1B91 JUMPI PUSH1 0x0 PUSH1 0x40 MLOAD PUSH32 0x57F447CE00000000000000000000000000000000000000000000000000000000 DUP2 MSTORE PUSH1 0x4 ADD PUSH2 0x1B88 SWAP2 SWAP1 PUSH2 0x337B JUMP JUMPDEST PUSH1 0x40 MLOAD DUP1 SWAP2 SUB SWAP1 REVERT JUMPDEST PUSH1 0x0 PUSH20 0xFFFFFFFFFFFFFFFFFFFFFFFFFFFFFFFFFFFFFFFF AND DUP6 PUSH20 0xFFFFFFFFFFFFFFFFFFFFFFFFFFFFFFFFFFFFFFFF AND SUB PUSH2 0x1C03 JUMPI PUSH1 0x0 PUSH1 0x40 MLOAD PUSH32 0x1A8351400000000000000000000000000000000000000000000000000000000 DUP2 MSTORE PUSH1 0x4 ADD PUSH2 0x1BFA SWAP2 SWAP1 PUSH2 0x337B JUMP JUMPDEST PUSH1 0x40 MLOAD DUP1 SWAP2 SUB SWAP1 REVERT JUMPDEST PUSH1 0x0 DUP1 PUSH2 0x1C10 DUP6 DUP6 PUSH2 0x1F39 JUMP JUMPDEST SWAP2 POP SWAP2 POP PUSH2 0x1C21 DUP8 DUP8 DUP5 DUP5 DUP8 PUSH2 0x1D7D JUMP JUMPDEST POP POP POP POP POP POP POP JUMP JUMPDEST PUSH1 0x0 DUP1 PUSH1 0x0 SWAP1 POP PUSH27 0x184F03E93FF9F4DAA797ED6E38ED64BF6A1F010000000000000000 DUP4 LT PUSH2 0x1C88 JUMPI PUSH27 0x184F03E93FF9F4DAA797ED6E38ED64BF6A1F010000000000000000 DUP4 DUP2 PUSH2 0x1C7E JUMPI PUSH2 0x1C7D PUSH2 0x3CE0 JUMP JUMPDEST JUMPDEST DIV SWAP3 POP PUSH1 0x40 DUP2 ADD SWAP1 POP JUMPDEST PUSH14 0x4EE2D6D415B85ACEF8100000000 DUP4 LT PUSH2 0x1CC5 JUMPI PUSH14 0x4EE2D6D415B85ACEF8100000000 DUP4 DUP2 PUSH2 0x1CBB JUMPI PUSH2 0x1CBA PUSH2 0x3CE0 JUMP JUMPDEST JUMPDEST DIV SWAP3 POP PUSH1 0x20 DUP2 ADD SWAP1 POP JUMPDEST PUSH7 0x2386F26FC10000 DUP4 LT PUSH2 0x1CF4 JUMPI PUSH7 0x2386F26FC10000 DUP4 DUP2 PUSH2 0x1CEA JUMPI PUSH2 0x1CE9 PUSH2 0x3CE0 JUMP JUMPDEST JUMPDEST DIV SWAP3 POP PUSH1 0x10 DUP2 ADD SWAP1 POP JUMPDEST PUSH4 0x5F5E100 DUP4 LT PUSH2 0x1D1D JUMPI PUSH4 0x5F5E100 DUP4 DUP2 PUSH2 0x1D13 JUMPI PUSH2 0x1D12 PUSH2 0x3CE0 JUMP JUMPDEST JUMPDEST DIV SWAP3 POP PUSH1 0x8 DUP2 ADD SWAP1 POP JUMPDEST PUSH2 0x2710 DUP4 LT PUSH2 0x1D42 JUMPI PUSH2 0x2710 DUP4 DUP2 PUSH2 0x1D38 JUMPI PUSH2 0x1D37 PUSH2 0x3CE0 JUMP JUMPDEST JUMPDEST DIV SWAP3 POP PUSH1 0x4 DUP2 ADD SWAP1 POP JUMPDEST PUSH1 0x64 DUP4 LT PUSH2 0x1D65 JUMPI PUSH1 0x64 DUP4 DUP2 PUSH2 0x1D5B JUMPI PUSH2 0x1D5A PUSH2 0x3CE0 JUMP JUMPDEST JUMPDEST DIV SWAP3 POP PUSH1 0x2 DUP2 ADD SWAP1 POP JUMPDEST PUSH1 0xA DUP4 LT PUSH2 0x1D74 JUMPI PUSH1 0x1 DUP2 ADD SWAP1 POP JUMPDEST DUP1 SWAP2 POP POP SWAP2 SWAP1 POP JUMP JUMPDEST PUSH2 0x1D89 DUP6 DUP6 DUP6 DUP6 PUSH2 0x20AF JUMP JUMPDEST PUSH1 0x0 PUSH20 0xFFFFFFFFFFFFFFFFFFFFFFFFFFFFFFFFFFFFFFFF AND DUP5 PUSH20 0xFFFFFFFFFFFFFFFFFFFFFFFFFFFFFFFFFFFFFFFF AND EQ PUSH2 0x1E28 JUMPI PUSH1 0x0 PUSH2 0x1DC7 PUSH2 0x12E3 JUMP JUMPDEST SWAP1 POP PUSH1 0x1 DUP5 MLOAD SUB PUSH2 0x1E17 JUMPI PUSH1 0x0 PUSH2 0x1DE8 PUSH1 0x0 DUP7 PUSH2 0x1469 SWAP1 SWAP2 SWAP1 PUSH4 0xFFFFFFFF AND JUMP JUMPDEST SWAP1 POP PUSH1 0x0 PUSH2 0x1E00 PUSH1 0x0 DUP7 PUSH2 0x1469 SWAP1 SWAP2 SWAP1 PUSH4 0xFFFFFFFF AND JUMP JUMPDEST SWAP1 POP PUSH2 0x1E10 DUP4 DUP10 DUP10 DUP6 DUP6 DUP10 PUSH2 0x20C1 JUMP JUMPDEST POP POP PUSH2 0x1E26 JUMP JUMPDEST PUSH2 0x1E25 DUP2 DUP8 DUP8 DUP8 DUP8 DUP8 PUSH2 0x2275 JUMP JUMPDEST JUMPDEST POP JUMPDEST POP POP POP POP POP JUMP JUMPDEST PUSH2 0x1E37 PUSH2 0xAF8 JUMP JUMPDEST PUSH2 0x1E6D JUMPI PUSH1 0x40 MLOAD PUSH32 0x8DFC202B00000000000000000000000000000000000000000000000000000000 DUP2 MSTORE PUSH1 0x4 ADD PUSH1 0x40 MLOAD DUP1 SWAP2 SUB SWAP1 REVERT JUMPDEST JUMP JUMPDEST PUSH1 0x0 PUSH2 0x1E9D PUSH32 0x360894A13BA1A3210667C828492DB98DCA3E2076CC3735A920A3CA505D382BBC PUSH1 0x0 SHL PUSH2 0x2429 JUMP JUMPDEST PUSH1 0x0 ADD PUSH1 0x0 SWAP1 SLOAD SWAP1 PUSH2 0x100 EXP SWAP1 DIV PUSH20 0xFFFFFFFFFFFFFFFFFFFFFFFFFFFFFFFFFFFFFFFF AND SWAP1 POP SWAP1 JUMP JUMPDEST PUSH2 0x1ECF DUP3 PUSH2 0x2433 JUMP JUMPDEST DUP2 PUSH20 0xFFFFFFFFFFFFFFFFFFFFFFFFFFFFFFFFFFFFFFFF AND PUSH32 0xBC7CD75A20EE27FD9ADEBAB32041F755214DBC6BFFA90CC0225B39DA2E5C2D3B PUSH1 0x40 MLOAD PUSH1 0x40 MLOAD DUP1 SWAP2 SUB SWAP1 LOG2 PUSH1 0x0 DUP2 MLOAD GT ISZERO PUSH2 0x1F2C JUMPI PUSH2 0x1F26 DUP3 DUP3 PUSH2 0x2500 JUMP JUMPDEST POP PUSH2 0x1F35 JUMP JUMPDEST PUSH2 0x1F34 PUSH2 0x2584 JUMP JUMPDEST JUMPDEST POP POP JUMP JUMPDEST PUSH1 0x60 DUP1 PUSH1 0x40 MLOAD SWAP2 POP PUSH1 0x1 DUP3 MSTORE DUP4 PUSH1 0x20 DUP4 ADD MSTORE PUSH1 0x40 DUP3 ADD SWAP1 POP PUSH1 0x1 DUP2 MSTORE DUP3 PUSH1 0x20 DUP3 ADD MSTORE PUSH1 0x40 DUP2 ADD PUSH1 0x40 MSTORE SWAP3 POP SWAP3 SWAP1 POP JUMP JUMPDEST PUSH2 0x1F71 PUSH2 0xAF8 JUMP JUMPDEST ISZERO PUSH2 0x1FA8 JUMPI PUSH1 0x40 MLOAD PUSH32 0xD93C066500000000000000000000000000000000000000000000000000000000 DUP2 MSTORE PUSH1 0x4 ADD PUSH1 0x40 MLOAD DUP1 SWAP2 SUB SWAP1 REVERT JUMPDEST JUMP JUMPDEST PUSH1 0x0 PUSH32 0xF0C57E16840DF040F15088DC2F81FE391C3923BEC73E23A9662EFC9C229C6A00 PUSH1 0x0 SHL SWAP1 POP SWAP1 JUMP JUMPDEST PUSH2 0x1FDD PUSH2 0x25C1 JUMP JUMPDEST PUSH2 0x2013 JUMPI PUSH1 0x40 MLOAD PUSH32 0xD7E6BCF800000000000000000000000000000000000000000000000000000000 DUP2 MSTORE PUSH1 0x4 ADD PUSH1 0x40 MLOAD DUP1 SWAP2 SUB SWAP1 REVERT JUMPDEST JUMP JUMPDEST PUSH2 0x201D PUSH2 0x1FD5 JUMP JUMPDEST PUSH2 0x2026 DUP2 PUSH2 0x25E1 JUMP JUMPDEST POP JUMP JUMPDEST PUSH2 0x2031 PUSH2 0x1FD5 JUMP JUMPDEST PUSH1 0x0 PUSH20 0xFFFFFFFFFFFFFFFFFFFFFFFFFFFFFFFFFFFFFFFF AND DUP2 PUSH20 0xFFFFFFFFFFFFFFFFFFFFFFFFFFFFFFFFFFFFFFFF AND SUB PUSH2 0x20A3 JUMPI PUSH1 0x0 PUSH1 0x40 MLOAD PUSH32 0x1E4FBDF700000000000000000000000000000000000000000000000000000000 DUP2 MSTORE PUSH1 0x4 ADD PUSH2 0x209A SWAP2 SWAP1 PUSH2 0x337B JUMP JUMPDEST PUSH1 0x40 MLOAD DUP1 SWAP2 SUB SWAP1 REVERT JUMPDEST PUSH2 0x20AC DUP2 PUSH2 0x173C JUMP JUMPDEST POP JUMP JUMPDEST PUSH2 0x20BB DUP5 DUP5 DUP5 DUP5 PUSH2 0x2603 JUMP JUMPDEST POP POP POP POP JUMP JUMPDEST PUSH1 0x0 DUP5 PUSH20 0xFFFFFFFFFFFFFFFFFFFFFFFFFFFFFFFFFFFFFFFF AND EXTCODESIZE GT ISZERO PUSH2 0x226D JUMPI DUP4 PUSH20 0xFFFFFFFFFFFFFFFFFFFFFFFFFFFFFFFFFFFFFFFF AND PUSH4 0xF23A6E61 DUP8 DUP8 DUP7 DUP7 DUP7 PUSH1 0x40 MLOAD DUP7 PUSH4 0xFFFFFFFF AND PUSH1 0xE0 SHL DUP2 MSTORE PUSH1 0x4 ADD PUSH2 0x2122 SWAP6 SWAP5 SWAP4 SWAP3 SWAP2 SWAP1 PUSH2 0x3DBD JUMP JUMPDEST PUSH1 0x20 PUSH1 0x40 MLOAD DUP1 DUP4 SUB DUP2 PUSH1 0x0 DUP8 GAS CALL SWAP3 POP POP POP DUP1 ISZERO PUSH2 0x215E JUMPI POP PUSH1 0x40 MLOAD RETURNDATASIZE PUSH1 0x1F NOT PUSH1 0x1F DUP3 ADD AND DUP3 ADD DUP1 PUSH1 0x40 MSTORE POP DUP2 ADD SWAP1 PUSH2 0x215B SWAP2 SWAP1 PUSH2 0x3E2C JUMP JUMPDEST PUSH1 0x1 JUMPDEST PUSH2 0x21E2 JUMPI RETURNDATASIZE DUP1 PUSH1 0x0 DUP2 EQ PUSH2 0x218E JUMPI PUSH1 0x40 MLOAD SWAP2 POP PUSH1 0x1F NOT PUSH1 0x3F RETURNDATASIZE ADD AND DUP3 ADD PUSH1 0x40 MSTORE RETURNDATASIZE DUP3 MSTORE RETURNDATASIZE PUSH1 0x0 PUSH1 0x20 DUP5 ADD RETURNDATACOPY PUSH2 0x2193 JUMP JUMPDEST PUSH1 0x60 SWAP2 POP JUMPDEST POP PUSH1 0x0 DUP2 MLOAD SUB PUSH2 0x21DA JUMPI DUP5 PUSH1 0x40 MLOAD PUSH32 0x57F447CE00000000000000000000000000000000000000000000000000000000 DUP2 MSTORE PUSH1 0x4 ADD PUSH2 0x21D1 SWAP2 SWAP1 PUSH2 0x337B JUMP JUMPDEST PUSH1 0x40 MLOAD DUP1 SWAP2 SUB SWAP1 REVERT JUMPDEST DUP1 MLOAD DUP2 PUSH1 0x20 ADD REVERT JUMPDEST PUSH4 0xF23A6E61 PUSH1 0xE0 SHL PUSH28 0xFFFFFFFFFFFFFFFFFFFFFFFFFFFFFFFFFFFFFFFFFFFFFFFFFFFFFFFF NOT AND DUP2 PUSH28 0xFFFFFFFFFFFFFFFFFFFFFFFFFFFFFFFFFFFFFFFFFFFFFFFFFFFFFFFF NOT AND EQ PUSH2 0x226B JUMPI DUP5 PUSH1 0x40 MLOAD PUSH32 0x57F447CE00000000000000000000000000000000000000000000000000000000 DUP2 MSTORE PUSH1 0x4 ADD PUSH2 0x2262 SWAP2 SWAP1 PUSH2 0x337B JUMP JUMPDEST PUSH1 0x40 MLOAD DUP1 SWAP2 SUB SWAP1 REVERT JUMPDEST POP JUMPDEST POP POP POP POP POP POP JUMP JUMPDEST PUSH1 0x0 DUP5 PUSH20 0xFFFFFFFFFFFFFFFFFFFFFFFFFFFFFFFFFFFFFFFF AND EXTCODESIZE GT ISZERO PUSH2 0x2421 JUMPI DUP4 PUSH20 0xFFFFFFFFFFFFFFFFFFFFFFFFFFFFFFFFFFFFFFFF AND PUSH4 0xBC197C81 DUP8 DUP8 DUP7 DUP7 DUP7 PUSH1 0x40 MLOAD DUP7 PUSH4 0xFFFFFFFF AND PUSH1 0xE0 SHL DUP2 MSTORE PUSH1 0x4 ADD PUSH2 0x22D6 SWAP6 SWAP5 SWAP4 SWAP3 SWAP2 SWAP1 PUSH2 0x3E59 JUMP JUMPDEST PUSH1 0x20 PUSH1 0x40 MLOAD DUP1 DUP4 SUB DUP2 PUSH1 0x0 DUP8 GAS CALL SWAP3 POP POP POP DUP1 ISZERO PUSH2 0x2312 JUMPI POP PUSH1 0x40 MLOAD RETURNDATASIZE PUSH1 0x1F NOT PUSH1 0x1F DUP3 ADD AND DUP3 ADD DUP1 PUSH1 0x40 MSTORE POP DUP2 ADD SWAP1 PUSH2 0x230F SWAP2 SWAP1 PUSH2 0x3E2C JUMP JUMPDEST PUSH1 0x1 JUMPDEST PUSH2 0x2396 JUMPI RETURNDATASIZE DUP1 PUSH1 0x0 DUP2 EQ PUSH2 0x2342 JUMPI PUSH1 0x40 MLOAD SWAP2 POP PUSH1 0x1F NOT PUSH1 0x3F RETURNDATASIZE ADD AND DUP3 ADD PUSH1 0x40 MSTORE RETURNDATASIZE DUP3 MSTORE RETURNDATASIZE PUSH1 0x0 PUSH1 0x20 DUP5 ADD RETURNDATACOPY PUSH2 0x2347 JUMP JUMPDEST PUSH1 0x60 SWAP2 POP JUMPDEST POP PUSH1 0x0 DUP2 MLOAD SUB PUSH2 0x238E JUMPI DUP5 PUSH1 0x40 MLOAD PUSH32 0x57F447CE00000000000000000000000000000000000000000000000000000000 DUP2 MSTORE PUSH1 0x4 ADD PUSH2 0x2385 SWAP2 SWAP1 PUSH2 0x337B JUMP JUMPDEST PUSH1 0x40 MLOAD DUP1 SWAP2 SUB SWAP1 REVERT JUMPDEST DUP1 MLOAD DUP2 PUSH1 0x20 ADD REVERT JUMPDEST PUSH4 0xBC197C81 PUSH1 0xE0 SHL PUSH28 0xFFFFFFFFFFFFFFFFFFFFFFFFFFFFFFFFFFFFFFFFFFFFFFFFFFFFFFFF NOT AND DUP2 PUSH28 0xFFFFFFFFFFFFFFFFFFFFFFFFFFFFFFFFFFFFFFFFFFFFFFFFFFFFFFFF NOT AND EQ PUSH2 0x241F JUMPI DUP5 PUSH1 0x40 MLOAD PUSH32 0x57F447CE00000000000000000000000000000000000000000000000000000000 DUP2 MSTORE PUSH1 0x4 ADD PUSH2 0x2416 SWAP2 SWAP1 PUSH2 0x337B JUMP JUMPDEST PUSH1 0x40 MLOAD DUP1 SWAP2 SUB SWAP1 REVERT JUMPDEST POP JUMPDEST POP POP POP POP POP POP JUMP JUMPDEST PUSH1 0x0 DUP2 SWAP1 POP SWAP2 SWAP1 POP JUMP JUMPDEST PUSH1 0x0 DUP2 PUSH20 0xFFFFFFFFFFFFFFFFFFFFFFFFFFFFFFFFFFFFFFFF AND EXTCODESIZE SUB PUSH2 0x248F JUMPI DUP1 PUSH1 0x40 MLOAD PUSH32 0x4C9C8CE300000000000000000000000000000000000000000000000000000000 DUP2 MSTORE PUSH1 0x4 ADD PUSH2 0x2486 SWAP2 SWAP1 PUSH2 0x337B JUMP JUMPDEST PUSH1 0x40 MLOAD DUP1 SWAP2 SUB SWAP1 REVERT JUMPDEST DUP1 PUSH2 0x24BC PUSH32 0x360894A13BA1A3210667C828492DB98DCA3E2076CC3735A920A3CA505D382BBC PUSH1 0x0 SHL PUSH2 0x2429 JUMP JUMPDEST PUSH1 0x0 ADD PUSH1 0x0 PUSH2 0x100 EXP DUP2 SLOAD DUP2 PUSH20 0xFFFFFFFFFFFFFFFFFFFFFFFFFFFFFFFFFFFFFFFF MUL NOT AND SWAP1 DUP4 PUSH20 0xFFFFFFFFFFFFFFFFFFFFFFFFFFFFFFFFFFFFFFFF AND MUL OR SWAP1 SSTORE POP POP JUMP JUMPDEST PUSH1 0x60 PUSH1 0x0 DUP1 DUP5 PUSH20 0xFFFFFFFFFFFFFFFFFFFFFFFFFFFFFFFFFFFFFFFF AND DUP5 PUSH1 0x40 MLOAD PUSH2 0x252A SWAP2 SWAP1 PUSH2 0x3EFD JUMP JUMPDEST PUSH1 0x0 PUSH1 0x40 MLOAD DUP1 DUP4 SUB DUP2 DUP6 GAS DELEGATECALL SWAP2 POP POP RETURNDATASIZE DUP1 PUSH1 0x0 DUP2 EQ PUSH2 0x2565 JUMPI PUSH1 0x40 MLOAD SWAP2 POP PUSH1 0x1F NOT PUSH1 0x3F RETURNDATASIZE ADD AND DUP3 ADD PUSH1 0x40 MSTORE RETURNDATASIZE DUP3 MSTORE RETURNDATASIZE PUSH1 0x0 PUSH1 0x20 DUP5 ADD RETURNDATACOPY PUSH2 0x256A JUMP JUMPDEST PUSH1 0x60 SWAP2 POP JUMPDEST POP SWAP2 POP SWAP2 POP PUSH2 0x257A DUP6 DUP4 DUP4 PUSH2 0x27A3 JUMP JUMPDEST SWAP3 POP POP POP SWAP3 SWAP2 POP POP JUMP JUMPDEST PUSH1 0x0 CALLVALUE GT ISZERO PUSH2 0x25BF JUMPI PUSH1 0x40 MLOAD PUSH32 0xB398979F00000000000000000000000000000000000000000000000000000000 DUP2 MSTORE PUSH1 0x4 ADD PUSH1 0x40 MLOAD DUP1 SWAP2 SUB SWAP1 REVERT JUMPDEST JUMP JUMPDEST PUSH1 0x0 PUSH2 0x25CB PUSH2 0x1AC5 JUMP JUMPDEST PUSH1 0x0 ADD PUSH1 0x8 SWAP1 SLOAD SWAP1 PUSH2 0x100 EXP SWAP1 DIV PUSH1 0xFF AND SWAP1 POP SWAP1 JUMP JUMPDEST PUSH1 0x0 PUSH2 0x25EB PUSH2 0x104E JUMP JUMPDEST SWAP1 POP DUP2 DUP2 PUSH1 0x2 ADD SWAP1 DUP2 PUSH2 0x25FE SWAP2 SWAP1 PUSH2 0x3A40 JUMP JUMPDEST POP POP POP JUMP JUMPDEST PUSH1 0x0 PUSH2 0x260D PUSH2 0x1235 JUMP JUMPDEST SWAP1 POP PUSH2 0x261B DUP6 DUP6 DUP6 DUP6 PUSH2 0x2832 JUMP JUMPDEST PUSH1 0x0 PUSH20 0xFFFFFFFFFFFFFFFFFFFFFFFFFFFFFFFFFFFFFFFF AND DUP6 PUSH20 0xFFFFFFFFFFFFFFFFFFFFFFFFFFFFFFFFFFFFFFFF AND SUB PUSH2 0x26E9 JUMPI PUSH1 0x0 DUP1 JUMPDEST DUP5 MLOAD DUP2 LT ISZERO PUSH2 0x26CB JUMPI PUSH1 0x0 PUSH2 0x2671 DUP3 DUP7 PUSH2 0x1469 SWAP1 SWAP2 SWAP1 PUSH4 0xFFFFFFFF AND JUMP JUMPDEST SWAP1 POP DUP1 DUP5 PUSH1 0x0 ADD PUSH1 0x0 PUSH2 0x268D DUP6 DUP11 PUSH2 0x1469 SWAP1 SWAP2 SWAP1 PUSH4 0xFFFFFFFF AND JUMP JUMPDEST DUP2 MSTORE PUSH1 0x20 ADD SWAP1 DUP2 MSTORE PUSH1 0x20 ADD PUSH1 0x0 KECCAK256 PUSH1 0x0 DUP3 DUP3 SLOAD PUSH2 0x26AA SWAP2 SWAP1 PUSH2 0x3F43 JUMP JUMPDEST SWAP3 POP POP DUP2 SWAP1 SSTORE POP DUP1 DUP4 PUSH2 0x26BD SWAP2 SWAP1 PUSH2 0x3F43 JUMP JUMPDEST SWAP3 POP POP DUP1 PUSH1 0x1 ADD SWAP1 POP PUSH2 0x2653 JUMP JUMPDEST POP DUP1 DUP3 PUSH1 0x1 ADD PUSH1 0x0 DUP3 DUP3 SLOAD PUSH2 0x26E0 SWAP2 SWAP1 PUSH2 0x3F43 JUMP JUMPDEST SWAP3 POP POP DUP2 SWAP1 SSTORE POP POP JUMPDEST PUSH1 0x0 PUSH20 0xFFFFFFFFFFFFFFFFFFFFFFFFFFFFFFFFFFFFFFFF AND DUP5 PUSH20 0xFFFFFFFFFFFFFFFFFFFFFFFFFFFFFFFFFFFFFFFF AND SUB PUSH2 0x279C JUMPI PUSH1 0x0 DUP1 JUMPDEST DUP5 MLOAD DUP2 LT ISZERO PUSH2 0x2787 JUMPI PUSH1 0x0 PUSH2 0x273F DUP3 DUP7 PUSH2 0x1469 SWAP1 SWAP2 SWAP1 PUSH4 0xFFFFFFFF AND JUMP JUMPDEST SWAP1 POP DUP1 DUP5 PUSH1 0x0 ADD PUSH1 0x0 PUSH2 0x275B DUP6 DUP11 PUSH2 0x1469 SWAP1 SWAP2 SWAP1 PUSH4 0xFFFFFFFF AND JUMP JUMPDEST DUP2 MSTORE PUSH1 0x20 ADD SWAP1 DUP2 MSTORE PUSH1 0x20 ADD PUSH1 0x0 KECCAK256 PUSH1 0x0 DUP3 DUP3 SLOAD SUB SWAP3 POP POP DUP2 SWAP1 SSTORE POP DUP1 DUP4 ADD SWAP3 POP POP DUP1 PUSH1 0x1 ADD SWAP1 POP PUSH2 0x2721 JUMP JUMPDEST POP DUP1 DUP3 PUSH1 0x1 ADD PUSH1 0x0 DUP3 DUP3 SLOAD SUB SWAP3 POP POP DUP2 SWAP1 SSTORE POP POP JUMPDEST POP POP POP POP POP JUMP JUMPDEST PUSH1 0x60 DUP3 PUSH2 0x27B8 JUMPI PUSH2 0x27B3 DUP3 PUSH2 0x284C JUMP JUMPDEST PUSH2 0x282A JUMP JUMPDEST PUSH1 0x0 DUP3 MLOAD EQ DUP1 ISZERO PUSH2 0x27E0 JUMPI POP PUSH1 0x0 DUP5 PUSH20 0xFFFFFFFFFFFFFFFFFFFFFFFFFFFFFFFFFFFFFFFF AND EXTCODESIZE EQ JUMPDEST ISZERO PUSH2 0x2822 JUMPI DUP4 PUSH1 0x40 MLOAD PUSH32 0x9996B31500000000000000000000000000000000000000000000000000000000 DUP2 MSTORE PUSH1 0x4 ADD PUSH2 0x2819 SWAP2 SWAP1 PUSH2 0x337B JUMP JUMPDEST PUSH1 0x40 MLOAD DUP1 SWAP2 SUB SWAP1 REVERT JUMPDEST DUP2 SWAP1 POP PUSH2 0x282B JUMP JUMPDEST JUMPDEST SWAP4 SWAP3 POP POP POP JUMP JUMPDEST PUSH2 0x283A PUSH2 0x1F69 JUMP JUMPDEST PUSH2 0x2846 DUP5 DUP5 DUP5 DUP5 PUSH2 0x2891 JUMP JUMPDEST POP POP POP POP JUMP JUMPDEST PUSH1 0x0 DUP2 MLOAD GT ISZERO PUSH2 0x285F JUMPI DUP1 MLOAD DUP1 DUP3 PUSH1 0x20 ADD REVERT JUMPDEST PUSH1 0x40 MLOAD PUSH32 0xD6BDA27500000000000000000000000000000000000000000000000000000000 DUP2 MSTORE PUSH1 0x4 ADD PUSH1 0x40 MLOAD DUP1 SWAP2 SUB SWAP1 REVERT JUMPDEST PUSH1 0x0 PUSH2 0x289B PUSH2 0x104E JUMP JUMPDEST SWAP1 POP DUP2 MLOAD DUP4 MLOAD EQ PUSH2 0x28E7 JUMPI DUP3 MLOAD DUP3 MLOAD PUSH1 0x40 MLOAD PUSH32 0x5B05999100000000000000000000000000000000000000000000000000000000 DUP2 MSTORE PUSH1 0x4 ADD PUSH2 0x28DE SWAP3 SWAP2 SWAP1 PUSH2 0x3C4D JUMP JUMPDEST PUSH1 0x40 MLOAD DUP1 SWAP2 SUB SWAP1 REVERT JUMPDEST PUSH1 0x0 PUSH2 0x28F1 PUSH2 0x12E3 JUMP JUMPDEST SWAP1 POP PUSH1 0x0 JUMPDEST DUP5 MLOAD DUP2 LT ISZERO PUSH2 0x2B09 JUMPI PUSH1 0x0 PUSH2 0x2914 DUP3 DUP8 PUSH2 0x1469 SWAP1 SWAP2 SWAP1 PUSH4 0xFFFFFFFF AND JUMP JUMPDEST SWAP1 POP PUSH1 0x0 PUSH2 0x292B DUP4 DUP8 PUSH2 0x1469 SWAP1 SWAP2 SWAP1 PUSH4 0xFFFFFFFF AND JUMP JUMPDEST SWAP1 POP PUSH1 0x0 PUSH20 0xFFFFFFFFFFFFFFFFFFFFFFFFFFFFFFFFFFFFFFFF AND DUP10 PUSH20 0xFFFFFFFFFFFFFFFFFFFFFFFFFFFFFFFFFFFFFFFF AND EQ PUSH2 0x2A5E JUMPI PUSH1 0x0 DUP6 PUSH1 0x0 ADD PUSH1 0x0 DUP5 DUP2 MSTORE PUSH1 0x20 ADD SWAP1 DUP2 MSTORE PUSH1 0x20 ADD PUSH1 0x0 KECCAK256 PUSH1 0x0 DUP12 PUSH20 0xFFFFFFFFFFFFFFFFFFFFFFFFFFFFFFFFFFFFFFFF AND PUSH20 0xFFFFFFFFFFFFFFFFFFFFFFFFFFFFFFFFFFFFFFFF AND DUP2 MSTORE PUSH1 0x20 ADD SWAP1 DUP2 MSTORE PUSH1 0x20 ADD PUSH1 0x0 KECCAK256 SLOAD SWAP1 POP DUP2 DUP2 LT ISZERO PUSH2 0x2A03 JUMPI DUP10 DUP2 DUP4 DUP6 PUSH1 0x40 MLOAD PUSH32 0x3DEE4C500000000000000000000000000000000000000000000000000000000 DUP2 MSTORE PUSH1 0x4 ADD PUSH2 0x29FA SWAP5 SWAP4 SWAP3 SWAP2 SWAP1 PUSH2 0x3F77 JUMP JUMPDEST PUSH1 0x40 MLOAD DUP1 SWAP2 SUB SWAP1 REVERT JUMPDEST DUP2 DUP2 SUB DUP7 PUSH1 0x0 ADD PUSH1 0x0 DUP6 DUP2 MSTORE PUSH1 0x20 ADD SWAP1 DUP2 MSTORE PUSH1 0x20 ADD PUSH1 0x0 KECCAK256 PUSH1 0x0 DUP13 PUSH20 0xFFFFFFFFFFFFFFFFFFFFFFFFFFFFFFFFFFFFFFFF AND PUSH20 0xFFFFFFFFFFFFFFFFFFFFFFFFFFFFFFFFFFFFFFFF AND DUP2 MSTORE PUSH1 0x20 ADD SWAP1 DUP2 MSTORE PUSH1 0x20 ADD PUSH1 0x0 KECCAK256 DUP2 SWAP1 SSTORE POP POP JUMPDEST PUSH1 0x0 PUSH20 0xFFFFFFFFFFFFFFFFFFFFFFFFFFFFFFFFFFFFFFFF AND DUP9 PUSH20 0xFFFFFFFFFFFFFFFFFFFFFFFFFFFFFFFFFFFFFFFF AND EQ PUSH2 0x2AFC JUMPI DUP1 DUP6 PUSH1 0x0 ADD PUSH1 0x0 DUP5 DUP2 MSTORE PUSH1 0x20 ADD SWAP1 DUP2 MSTORE PUSH1 0x20 ADD PUSH1 0x0 KECCAK256 PUSH1 0x0 DUP11 PUSH20 0xFFFFFFFFFFFFFFFFFFFFFFFFFFFFFFFFFFFFFFFF AND PUSH20 0xFFFFFFFFFFFFFFFFFFFFFFFFFFFFFFFFFFFFFFFF AND DUP2 MSTORE PUSH1 0x20 ADD SWAP1 DUP2 MSTORE PUSH1 0x20 ADD PUSH1 0x0 KECCAK256 PUSH1 0x0 DUP3 DUP3 SLOAD PUSH2 0x2AF4 SWAP2 SWAP1 PUSH2 0x3F43 JUMP JUMPDEST SWAP3 POP POP DUP2 SWAP1 SSTORE POP JUMPDEST POP POP DUP1 PUSH1 0x1 ADD SWAP1 POP PUSH2 0x28F6 JUMP JUMPDEST POP PUSH1 0x1 DUP5 MLOAD SUB PUSH2 0x2BC8 JUMPI PUSH1 0x0 PUSH2 0x2B29 PUSH1 0x0 DUP7 PUSH2 0x1469 SWAP1 SWAP2 SWAP1 PUSH4 0xFFFFFFFF AND JUMP JUMPDEST SWAP1 POP PUSH1 0x0 PUSH2 0x2B41 PUSH1 0x0 DUP7 PUSH2 0x1469 SWAP1 SWAP2 SWAP1 PUSH4 0xFFFFFFFF AND JUMP JUMPDEST SWAP1 POP DUP7 PUSH20 0xFFFFFFFFFFFFFFFFFFFFFFFFFFFFFFFFFFFFFFFF AND DUP9 PUSH20 0xFFFFFFFFFFFFFFFFFFFFFFFFFFFFFFFFFFFFFFFF AND DUP5 PUSH20 0xFFFFFFFFFFFFFFFFFFFFFFFFFFFFFFFFFFFFFFFF AND PUSH32 0xC3D58168C5AE7397731D063D5BBF3D657854427343F4C083240F7AACAA2D0F62 DUP6 DUP6 PUSH1 0x40 MLOAD PUSH2 0x2BB9 SWAP3 SWAP2 SWAP1 PUSH2 0x3C4D JUMP JUMPDEST PUSH1 0x40 MLOAD DUP1 SWAP2 SUB SWAP1 LOG4 POP POP PUSH2 0x2C47 JUMP JUMPDEST DUP5 PUSH20 0xFFFFFFFFFFFFFFFFFFFFFFFFFFFFFFFFFFFFFFFF AND DUP7 PUSH20 0xFFFFFFFFFFFFFFFFFFFFFFFFFFFFFFFFFFFFFFFF AND DUP3 PUSH20 0xFFFFFFFFFFFFFFFFFFFFFFFFFFFFFFFFFFFFFFFF AND PUSH32 0x4A39DC06D4C0DBC64B70AF90FD698A233A518AA5D07E595D983B8C0526C8F7FB DUP8 DUP8 PUSH1 0x40 MLOAD PUSH2 0x2C3E SWAP3 SWAP2 SWAP1 PUSH2 0x3FBC JUMP JUMPDEST PUSH1 0x40 MLOAD DUP1 SWAP2 SUB SWAP1 LOG4 JUMPDEST POP POP POP POP POP POP JUMP JUMPDEST PUSH1 0x0 PUSH1 0x40 MLOAD SWAP1 POP SWAP1 JUMP JUMPDEST PUSH1 0x0 DUP1 REVERT JUMPDEST PUSH1 0x0 DUP1 REVERT JUMPDEST PUSH1 0x0 PUSH20 0xFFFFFFFFFFFFFFFFFFFFFFFFFFFFFFFFFFFFFFFF DUP3 AND SWAP1 POP SWAP2 SWAP1 POP JUMP JUMPDEST PUSH1 0x0 PUSH2 0x2C8E DUP3 PUSH2 0x2C63 JUMP JUMPDEST SWAP1 POP SWAP2 SWAP1 POP JUMP JUMPDEST PUSH2 0x2C9E DUP2 PUSH2 0x2C83 JUMP JUMPDEST DUP2 EQ PUSH2 0x2CA9 JUMPI PUSH1 0x0 DUP1 REVERT JUMPDEST POP JUMP JUMPDEST PUSH1 0x0 DUP2 CALLDATALOAD SWAP1 POP PUSH2 0x2CBB DUP2 PUSH2 0x2C95 JUMP JUMPDEST SWAP3 SWAP2 POP POP JUMP JUMPDEST PUSH1 0x0 DUP2 SWAP1 POP SWAP2 SWAP1 POP JUMP JUMPDEST PUSH2 0x2CD4 DUP2 PUSH2 0x2CC1 JUMP JUMPDEST DUP2 EQ PUSH2 0x2CDF JUMPI PUSH1 0x0 DUP1 REVERT JUMPDEST POP JUMP JUMPDEST PUSH1 0x0 DUP2 CALLDATALOAD SWAP1 POP PUSH2 0x2CF1 DUP2 PUSH2 0x2CCB JUMP JUMPDEST SWAP3 SWAP2 POP POP JUMP JUMPDEST PUSH1 0x0 DUP1 PUSH1 0x40 DUP4 DUP6 SUB SLT ISZERO PUSH2 0x2D0E JUMPI PUSH2 0x2D0D PUSH2 0x2C59 JUMP JUMPDEST JUMPDEST PUSH1 0x0 PUSH2 0x2D1C DUP6 DUP3 DUP7 ADD PUSH2 0x2CAC JUMP JUMPDEST SWAP3 POP POP PUSH1 0x20 PUSH2 0x2D2D DUP6 DUP3 DUP7 ADD PUSH2 0x2CE2 JUMP JUMPDEST SWAP2 POP POP SWAP3 POP SWAP3 SWAP1 POP JUMP JUMPDEST PUSH2 0x2D40 DUP2 PUSH2 0x2CC1 JUMP JUMPDEST DUP3 MSTORE POP POP JUMP JUMPDEST PUSH1 0x0 PUSH1 0x20 DUP3 ADD SWAP1 POP PUSH2 0x2D5B PUSH1 0x0 DUP4 ADD DUP5 PUSH2 0x2D37 JUMP JUMPDEST SWAP3 SWAP2 POP POP JUMP JUMPDEST PUSH1 0x0 PUSH32 0xFFFFFFFF00000000000000000000000000000000000000000000000000000000 DUP3 AND SWAP1 POP SWAP2 SWAP1 POP JUMP JUMPDEST PUSH2 0x2D96 DUP2 PUSH2 0x2D61 JUMP JUMPDEST DUP2 EQ PUSH2 0x2DA1 JUMPI PUSH1 0x0 DUP1 REVERT JUMPDEST POP JUMP JUMPDEST PUSH1 0x0 DUP2 CALLDATALOAD SWAP1 POP PUSH2 0x2DB3 DUP2 PUSH2 0x2D8D JUMP JUMPDEST SWAP3 SWAP2 POP POP JUMP JUMPDEST PUSH1 0x0 PUSH1 0x20 DUP3 DUP5 SUB SLT ISZERO PUSH2 0x2DCF JUMPI PUSH2 0x2DCE PUSH2 0x2C59 JUMP JUMPDEST JUMPDEST PUSH1 0x0 PUSH2 0x2DDD DUP5 DUP3 DUP6 ADD PUSH2 0x2DA4 JUMP JUMPDEST SWAP2 POP POP SWAP3 SWAP2 POP POP JUMP JUMPDEST PUSH1 0x0 DUP2 ISZERO ISZERO SWAP1 POP SWAP2 SWAP1 POP JUMP JUMPDEST PUSH2 0x2DFB DUP2 PUSH2 0x2DE6 JUMP JUMPDEST DUP3 MSTORE POP POP JUMP JUMPDEST PUSH1 0x0 PUSH1 0x20 DUP3 ADD SWAP1 POP PUSH2 0x2E16 PUSH1 0x0 DUP4 ADD DUP5 PUSH2 0x2DF2 JUMP JUMPDEST SWAP3 SWAP2 POP POP JUMP JUMPDEST PUSH1 0x0 DUP1 REVERT JUMPDEST PUSH1 0x0 DUP1 REVERT JUMPDEST PUSH1 0x0 PUSH1 0x1F NOT PUSH1 0x1F DUP4 ADD AND SWAP1 POP SWAP2 SWAP1 POP JUMP JUMPDEST PUSH32 0x4E487B7100000000000000000000000000000000000000000000000000000000 PUSH1 0x0 MSTORE PUSH1 0x41 PUSH1 0x4 MSTORE PUSH1 0x24 PUSH1 0x0 REVERT JUMPDEST PUSH2 0x2E6F DUP3 PUSH2 0x2E26 JUMP JUMPDEST DUP2 ADD DUP2 DUP2 LT PUSH8 0xFFFFFFFFFFFFFFFF DUP3 GT OR ISZERO PUSH2 0x2E8E JUMPI PUSH2 0x2E8D PUSH2 0x2E37 JUMP JUMPDEST JUMPDEST DUP1 PUSH1 0x40 MSTORE POP POP POP JUMP JUMPDEST PUSH1 0x0 PUSH2 0x2EA1 PUSH2 0x2C4F JUMP JUMPDEST SWAP1 POP PUSH2 0x2EAD DUP3 DUP3 PUSH2 0x2E66 JUMP JUMPDEST SWAP2 SWAP1 POP JUMP JUMPDEST PUSH1 0x0 PUSH8 0xFFFFFFFFFFFFFFFF DUP3 GT ISZERO PUSH2 0x2ECD JUMPI PUSH2 0x2ECC PUSH2 0x2E37 JUMP JUMPDEST JUMPDEST PUSH2 0x2ED6 DUP3 PUSH2 0x2E26 JUMP JUMPDEST SWAP1 POP PUSH1 0x20 DUP2 ADD SWAP1 POP SWAP2 SWAP1 POP JUMP JUMPDEST DUP3 DUP2 DUP4 CALLDATACOPY PUSH1 0x0 DUP4 DUP4 ADD MSTORE POP POP POP JUMP JUMPDEST PUSH1 0x0 PUSH2 0x2F05 PUSH2 0x2F00 DUP5 PUSH2 0x2EB2 JUMP JUMPDEST PUSH2 0x2E97 JUMP JUMPDEST SWAP1 POP DUP3 DUP2 MSTORE PUSH1 0x20 DUP2 ADD DUP5 DUP5 DUP5 ADD GT ISZERO PUSH2 0x2F21 JUMPI PUSH2 0x2F20 PUSH2 0x2E21 JUMP JUMPDEST JUMPDEST PUSH2 0x2F2C DUP5 DUP3 DUP6 PUSH2 0x2EE3 JUMP JUMPDEST POP SWAP4 SWAP3 POP POP POP JUMP JUMPDEST PUSH1 0x0 DUP3 PUSH1 0x1F DUP4 ADD SLT PUSH2 0x2F49 JUMPI PUSH2 0x2F48 PUSH2 0x2E1C JUMP JUMPDEST JUMPDEST DUP2 CALLDATALOAD PUSH2 0x2F59 DUP5 DUP3 PUSH1 0x20 DUP7 ADD PUSH2 0x2EF2 JUMP JUMPDEST SWAP2 POP POP SWAP3 SWAP2 POP POP JUMP JUMPDEST PUSH1 0x0 PUSH1 0x20 DUP3 DUP5 SUB SLT ISZERO PUSH2 0x2F78 JUMPI PUSH2 0x2F77 PUSH2 0x2C59 JUMP JUMPDEST JUMPDEST PUSH1 0x0 DUP3 ADD CALLDATALOAD PUSH8 0xFFFFFFFFFFFFFFFF DUP2 GT ISZERO PUSH2 0x2F96 JUMPI PUSH2 0x2F95 PUSH2 0x2C5E JUMP JUMPDEST JUMPDEST PUSH2 0x2FA2 DUP5 DUP3 DUP6 ADD PUSH2 0x2F34 JUMP JUMPDEST SWAP2 POP POP SWAP3 SWAP2 POP POP JUMP JUMPDEST PUSH1 0x0 PUSH1 0x20 DUP3 DUP5 SUB SLT ISZERO PUSH2 0x2FC1 JUMPI PUSH2 0x2FC0 PUSH2 0x2C59 JUMP JUMPDEST JUMPDEST PUSH1 0x0 PUSH2 0x2FCF DUP5 DUP3 DUP6 ADD PUSH2 0x2CE2 JUMP JUMPDEST SWAP2 POP POP SWAP3 SWAP2 POP POP JUMP JUMPDEST PUSH1 0x0 DUP2 MLOAD SWAP1 POP SWAP2 SWAP1 POP JUMP JUMPDEST PUSH1 0x0 DUP3 DUP3 MSTORE PUSH1 0x20 DUP3 ADD SWAP1 POP SWAP3 SWAP2 POP POP JUMP JUMPDEST PUSH1 0x0 JUMPDEST DUP4 DUP2 LT ISZERO PUSH2 0x3012 JUMPI DUP1 DUP3 ADD MLOAD DUP2 DUP5 ADD MSTORE PUSH1 0x20 DUP2 ADD SWAP1 POP PUSH2 0x2FF7 JUMP JUMPDEST PUSH1 0x0 DUP5 DUP5 ADD MSTORE POP POP POP POP JUMP JUMPDEST PUSH1 0x0 PUSH2 0x3029 DUP3 PUSH2 0x2FD8 JUMP JUMPDEST PUSH2 0x3033 DUP2 DUP6 PUSH2 0x2FE3 JUMP JUMPDEST SWAP4 POP PUSH2 0x3043 DUP2 DUP6 PUSH1 0x20 DUP7 ADD PUSH2 0x2FF4 JUMP JUMPDEST PUSH2 0x304C DUP2 PUSH2 0x2E26 JUMP JUMPDEST DUP5 ADD SWAP2 POP POP SWAP3 SWAP2 POP POP JUMP JUMPDEST PUSH1 0x0 PUSH1 0x20 DUP3 ADD SWAP1 POP DUP2 DUP2 SUB PUSH1 0x0 DUP4 ADD MSTORE PUSH2 0x3071 DUP2 DUP5 PUSH2 0x301E JUMP JUMPDEST SWAP1 POP SWAP3 SWAP2 POP POP JUMP JUMPDEST PUSH1 0x0 PUSH8 0xFFFFFFFFFFFFFFFF DUP3 GT ISZERO PUSH2 0x3094 JUMPI PUSH2 0x3093 PUSH2 0x2E37 JUMP JUMPDEST JUMPDEST PUSH1 0x20 DUP3 MUL SWAP1 POP PUSH1 0x20 DUP2 ADD SWAP1 POP SWAP2 SWAP1 POP JUMP JUMPDEST PUSH1 0x0 DUP1 REVERT JUMPDEST PUSH1 0x0 PUSH2 0x30BD PUSH2 0x30B8 DUP5 PUSH2 0x3079 JUMP JUMPDEST PUSH2 0x2E97 JUMP JUMPDEST SWAP1 POP DUP1 DUP4 DUP3 MSTORE PUSH1 0x20 DUP3 ADD SWAP1 POP PUSH1 0x20 DUP5 MUL DUP4 ADD DUP6 DUP2 GT ISZERO PUSH2 0x30E0 JUMPI PUSH2 0x30DF PUSH2 0x30A5 JUMP JUMPDEST JUMPDEST DUP4 JUMPDEST DUP2 DUP2 LT ISZERO PUSH2 0x3109 JUMPI DUP1 PUSH2 0x30F5 DUP9 DUP3 PUSH2 0x2CE2 JUMP JUMPDEST DUP5 MSTORE PUSH1 0x20 DUP5 ADD SWAP4 POP POP PUSH1 0x20 DUP2 ADD SWAP1 POP PUSH2 0x30E2 JUMP JUMPDEST POP POP POP SWAP4 SWAP3 POP POP POP JUMP JUMPDEST PUSH1 0x0 DUP3 PUSH1 0x1F DUP4 ADD SLT PUSH2 0x3128 JUMPI PUSH2 0x3127 PUSH2 0x2E1C JUMP JUMPDEST JUMPDEST DUP2 CALLDATALOAD PUSH2 0x3138 DUP5 DUP3 PUSH1 0x20 DUP7 ADD PUSH2 0x30AA JUMP JUMPDEST SWAP2 POP POP SWAP3 SWAP2 POP POP JUMP JUMPDEST PUSH1 0x0 PUSH8 0xFFFFFFFFFFFFFFFF DUP3 GT ISZERO PUSH2 0x315C JUMPI PUSH2 0x315B PUSH2 0x2E37 JUMP JUMPDEST JUMPDEST PUSH2 0x3165 DUP3 PUSH2 0x2E26 JUMP JUMPDEST SWAP1 POP PUSH1 0x20 DUP2 ADD SWAP1 POP SWAP2 SWAP1 POP JUMP JUMPDEST PUSH1 0x0 PUSH2 0x3185 PUSH2 0x3180 DUP5 PUSH2 0x3141 JUMP JUMPDEST PUSH2 0x2E97 JUMP JUMPDEST SWAP1 POP DUP3 DUP2 MSTORE PUSH1 0x20 DUP2 ADD DUP5 DUP5 DUP5 ADD GT ISZERO PUSH2 0x31A1 JUMPI PUSH2 0x31A0 PUSH2 0x2E21 JUMP JUMPDEST JUMPDEST PUSH2 0x31AC DUP5 DUP3 DUP6 PUSH2 0x2EE3 JUMP JUMPDEST POP SWAP4 SWAP3 POP POP POP JUMP JUMPDEST PUSH1 0x0 DUP3 PUSH1 0x1F DUP4 ADD SLT PUSH2 0x31C9 JUMPI PUSH2 0x31C8 PUSH2 0x2E1C JUMP JUMPDEST JUMPDEST DUP2 CALLDATALOAD PUSH2 0x31D9 DUP5 DUP3 PUSH1 0x20 DUP7 ADD PUSH2 0x3172 JUMP JUMPDEST SWAP2 POP POP SWAP3 SWAP2 POP POP JUMP JUMPDEST PUSH1 0x0 DUP1 PUSH1 0x0 DUP1 PUSH1 0x80 DUP6 DUP8 SUB SLT ISZERO PUSH2 0x31FC JUMPI PUSH2 0x31FB PUSH2 0x2C59 JUMP JUMPDEST JUMPDEST PUSH1 0x0 PUSH2 0x320A DUP8 DUP3 DUP9 ADD PUSH2 0x2CAC JUMP JUMPDEST SWAP5 POP POP PUSH1 0x20 DUP6 ADD CALLDATALOAD PUSH8 0xFFFFFFFFFFFFFFFF DUP2 GT ISZERO PUSH2 0x322B JUMPI PUSH2 0x322A PUSH2 0x2C5E JUMP JUMPDEST JUMPDEST PUSH2 0x3237 DUP8 DUP3 DUP9 ADD PUSH2 0x3113 JUMP JUMPDEST SWAP4 POP POP PUSH1 0x40 DUP6 ADD CALLDATALOAD PUSH8 0xFFFFFFFFFFFFFFFF DUP2 GT ISZERO PUSH2 0x3258 JUMPI PUSH2 0x3257 PUSH2 0x2C5E JUMP JUMPDEST JUMPDEST PUSH2 0x3264 DUP8 DUP3 DUP9 ADD PUSH2 0x3113 JUMP JUMPDEST SWAP3 POP POP PUSH1 0x60 DUP6 ADD CALLDATALOAD PUSH8 0xFFFFFFFFFFFFFFFF DUP2 GT ISZERO PUSH2 0x3285 JUMPI PUSH2 0x3284 PUSH2 0x2C5E JUMP JUMPDEST JUMPDEST PUSH2 0x3291 DUP8 DUP3 DUP9 ADD PUSH2 0x31B4 JUMP JUMPDEST SWAP2 POP POP SWAP3 SWAP6 SWAP2 SWAP5 POP SWAP3 POP JUMP JUMPDEST PUSH1 0x0 DUP1 PUSH1 0x0 DUP1 PUSH1 0x0 PUSH1 0xA0 DUP7 DUP9 SUB SLT ISZERO PUSH2 0x32B9 JUMPI PUSH2 0x32B8 PUSH2 0x2C59 JUMP JUMPDEST JUMPDEST PUSH1 0x0 PUSH2 0x32C7 DUP9 DUP3 DUP10 ADD PUSH2 0x2CAC JUMP JUMPDEST SWAP6 POP POP PUSH1 0x20 PUSH2 0x32D8 DUP9 DUP3 DUP10 ADD PUSH2 0x2CAC JUMP JUMPDEST SWAP5 POP POP PUSH1 0x40 DUP7 ADD CALLDATALOAD PUSH8 0xFFFFFFFFFFFFFFFF DUP2 GT ISZERO PUSH2 0x32F9 JUMPI PUSH2 0x32F8 PUSH2 0x2C5E JUMP JUMPDEST JUMPDEST PUSH2 0x3305 DUP9 DUP3 DUP10 ADD PUSH2 0x3113 JUMP JUMPDEST SWAP4 POP POP PUSH1 0x60 DUP7 ADD CALLDATALOAD PUSH8 0xFFFFFFFFFFFFFFFF DUP2 GT ISZERO PUSH2 0x3326 JUMPI PUSH2 0x3325 PUSH2 0x2C5E JUMP JUMPDEST JUMPDEST PUSH2 0x3332 DUP9 DUP3 DUP10 ADD PUSH2 0x3113 JUMP JUMPDEST SWAP3 POP POP PUSH1 0x80 DUP7 ADD CALLDATALOAD PUSH8 0xFFFFFFFFFFFFFFFF DUP2 GT ISZERO PUSH2 0x3353 JUMPI PUSH2 0x3352 PUSH2 0x2C5E JUMP JUMPDEST JUMPDEST PUSH2 0x335F DUP9 DUP3 DUP10 ADD PUSH2 0x31B4 JUMP JUMPDEST SWAP2 POP POP SWAP3 SWAP6 POP SWAP3 SWAP6 SWAP1 SWAP4 POP JUMP JUMPDEST PUSH2 0x3375 DUP2 PUSH2 0x2C83 JUMP JUMPDEST DUP3 MSTORE POP POP JUMP JUMPDEST PUSH1 0x0 PUSH1 0x20 DUP3 ADD SWAP1 POP PUSH2 0x3390 PUSH1 0x0 DUP4 ADD DUP5 PUSH2 0x336C JUMP JUMPDEST SWAP3 SWAP2 POP POP JUMP JUMPDEST PUSH1 0x0 PUSH8 0xFFFFFFFFFFFFFFFF DUP3 GT ISZERO PUSH2 0x33B1 JUMPI PUSH2 0x33B0 PUSH2 0x2E37 JUMP JUMPDEST JUMPDEST PUSH1 0x20 DUP3 MUL SWAP1 POP PUSH1 0x20 DUP2 ADD SWAP1 POP SWAP2 SWAP1 POP JUMP JUMPDEST PUSH1 0x0 PUSH2 0x33D5 PUSH2 0x33D0 DUP5 PUSH2 0x3396 JUMP JUMPDEST PUSH2 0x2E97 JUMP JUMPDEST SWAP1 POP DUP1 DUP4 DUP3 MSTORE PUSH1 0x20 DUP3 ADD SWAP1 POP PUSH1 0x20 DUP5 MUL DUP4 ADD DUP6 DUP2 GT ISZERO PUSH2 0x33F8 JUMPI PUSH2 0x33F7 PUSH2 0x30A5 JUMP JUMPDEST JUMPDEST DUP4 JUMPDEST DUP2 DUP2 LT ISZERO PUSH2 0x3421 JUMPI DUP1 PUSH2 0x340D DUP9 DUP3 PUSH2 0x2CAC JUMP JUMPDEST DUP5 MSTORE PUSH1 0x20 DUP5 ADD SWAP4 POP POP PUSH1 0x20 DUP2 ADD SWAP1 POP PUSH2 0x33FA JUMP JUMPDEST POP POP POP SWAP4 SWAP3 POP POP POP JUMP JUMPDEST PUSH1 0x0 DUP3 PUSH1 0x1F DUP4 ADD SLT PUSH2 0x3440 JUMPI PUSH2 0x343F PUSH2 0x2E1C JUMP JUMPDEST JUMPDEST DUP2 CALLDATALOAD PUSH2 0x3450 DUP5 DUP3 PUSH1 0x20 DUP7 ADD PUSH2 0x33C2 JUMP JUMPDEST SWAP2 POP POP SWAP3 SWAP2 POP POP JUMP JUMPDEST PUSH1 0x0 DUP1 PUSH1 0x40 DUP4 DUP6 SUB SLT ISZERO PUSH2 0x3470 JUMPI PUSH2 0x346F PUSH2 0x2C59 JUMP JUMPDEST JUMPDEST PUSH1 0x0 DUP4 ADD CALLDATALOAD PUSH8 0xFFFFFFFFFFFFFFFF DUP2 GT ISZERO PUSH2 0x348E JUMPI PUSH2 0x348D PUSH2 0x2C5E JUMP JUMPDEST JUMPDEST PUSH2 0x349A DUP6 DUP3 DUP7 ADD PUSH2 0x342B JUMP JUMPDEST SWAP3 POP POP PUSH1 0x20 DUP4 ADD CALLDATALOAD PUSH8 0xFFFFFFFFFFFFFFFF DUP2 GT ISZERO PUSH2 0x34BB JUMPI PUSH2 0x34BA PUSH2 0x2C5E JUMP JUMPDEST JUMPDEST PUSH2 0x34C7 DUP6 DUP3 DUP7 ADD PUSH2 0x3113 JUMP JUMPDEST SWAP2 POP POP SWAP3 POP SWAP3 SWAP1 POP JUMP JUMPDEST PUSH1 0x0 DUP2 MLOAD SWAP1 POP SWAP2 SWAP1 POP JUMP JUMPDEST PUSH1 0x0 DUP3 DUP3 MSTORE PUSH1 0x20 DUP3 ADD SWAP1 POP SWAP3 SWAP2 POP POP JUMP JUMPDEST PUSH1 0x0 DUP2 SWAP1 POP PUSH1 0x20 DUP3 ADD SWAP1 POP SWAP2 SWAP1 POP JUMP JUMPDEST PUSH2 0x3506 DUP2 PUSH2 0x2CC1 JUMP JUMPDEST DUP3 MSTORE POP POP JUMP JUMPDEST PUSH1 0x0 PUSH2 0x3518 DUP4 DUP4 PUSH2 0x34FD JUMP JUMPDEST PUSH1 0x20 DUP4 ADD SWAP1 POP SWAP3 SWAP2 POP POP JUMP JUMPDEST PUSH1 0x0 PUSH1 0x20 DUP3 ADD SWAP1 POP SWAP2 SWAP1 POP JUMP JUMPDEST PUSH1 0x0 PUSH2 0x353C DUP3 PUSH2 0x34D1 JUMP JUMPDEST PUSH2 0x3546 DUP2 DUP6 PUSH2 0x34DC JUMP JUMPDEST SWAP4 POP PUSH2 0x3551 DUP4 PUSH2 0x34ED JUMP JUMPDEST DUP1 PUSH1 0x0 JUMPDEST DUP4 DUP2 LT ISZERO PUSH2 0x3582 JUMPI DUP2 MLOAD PUSH2 0x3569 DUP9 DUP3 PUSH2 0x350C JUMP JUMPDEST SWAP8 POP PUSH2 0x3574 DUP4 PUSH2 0x3524 JUMP JUMPDEST SWAP3 POP POP PUSH1 0x1 DUP2 ADD SWAP1 POP PUSH2 0x3555 JUMP JUMPDEST POP DUP6 SWAP4 POP POP POP POP SWAP3 SWAP2 POP POP JUMP JUMPDEST PUSH1 0x0 PUSH1 0x20 DUP3 ADD SWAP1 POP DUP2 DUP2 SUB PUSH1 0x0 DUP4 ADD MSTORE PUSH2 0x35A9 DUP2 DUP5 PUSH2 0x3531 JUMP JUMPDEST SWAP1 POP SWAP3 SWAP2 POP POP JUMP JUMPDEST PUSH1 0x0 DUP1 PUSH1 0x40 DUP4 DUP6 SUB SLT ISZERO PUSH2 0x35C8 JUMPI PUSH2 0x35C7 PUSH2 0x2C59 JUMP JUMPDEST JUMPDEST PUSH1 0x0 PUSH2 0x35D6 DUP6 DUP3 DUP7 ADD PUSH2 0x2CAC JUMP JUMPDEST SWAP3 POP POP PUSH1 0x20 DUP4 ADD CALLDATALOAD PUSH8 0xFFFFFFFFFFFFFFFF DUP2 GT ISZERO PUSH2 0x35F7 JUMPI PUSH2 0x35F6 PUSH2 0x2C5E JUMP JUMPDEST JUMPDEST PUSH2 0x3603 DUP6 DUP3 DUP7 ADD PUSH2 0x31B4 JUMP JUMPDEST SWAP2 POP POP SWAP3 POP SWAP3 SWAP1 POP JUMP JUMPDEST PUSH1 0x0 DUP2 SWAP1 POP SWAP2 SWAP1 POP JUMP JUMPDEST PUSH2 0x3620 DUP2 PUSH2 0x360D JUMP JUMPDEST DUP3 MSTORE POP POP JUMP JUMPDEST PUSH1 0x0 PUSH1 0x20 DUP3 ADD SWAP1 POP PUSH2 0x363B PUSH1 0x0 DUP4 ADD DUP5 PUSH2 0x3617 JUMP JUMPDEST SWAP3 SWAP2 POP POP JUMP JUMPDEST PUSH1 0x0 DUP1 PUSH1 0x0 DUP1 PUSH1 0x80 DUP6 DUP8 SUB SLT ISZERO PUSH2 0x365B JUMPI PUSH2 0x365A PUSH2 0x2C59 JUMP JUMPDEST JUMPDEST PUSH1 0x0 PUSH2 0x3669 DUP8 DUP3 DUP9 ADD PUSH2 0x2CAC JUMP JUMPDEST SWAP5 POP POP PUSH1 0x20 PUSH2 0x367A DUP8 DUP3 DUP9 ADD PUSH2 0x2CE2 JUMP JUMPDEST SWAP4 POP POP PUSH1 0x40 PUSH2 0x368B DUP8 DUP3 DUP9 ADD PUSH2 0x2CE2 JUMP JUMPDEST SWAP3 POP POP PUSH1 0x60 DUP6 ADD CALLDATALOAD PUSH8 0xFFFFFFFFFFFFFFFF DUP2 GT ISZERO PUSH2 0x36AC JUMPI PUSH2 0x36AB PUSH2 0x2C5E JUMP JUMPDEST JUMPDEST PUSH2 0x36B8 DUP8 DUP3 DUP9 ADD PUSH2 0x31B4 JUMP JUMPDEST SWAP2 POP POP SWAP3 SWAP6 SWAP2 SWAP5 POP SWAP3 POP JUMP JUMPDEST PUSH2 0x36CD DUP2 PUSH2 0x2DE6 JUMP JUMPDEST DUP2 EQ PUSH2 0x36D8 JUMPI PUSH1 0x0 DUP1 REVERT JUMPDEST POP JUMP JUMPDEST PUSH1 0x0 DUP2 CALLDATALOAD SWAP1 POP PUSH2 0x36EA DUP2 PUSH2 0x36C4 JUMP JUMPDEST SWAP3 SWAP2 POP POP JUMP JUMPDEST PUSH1 0x0 DUP1 PUSH1 0x40 DUP4 DUP6 SUB SLT ISZERO PUSH2 0x3707 JUMPI PUSH2 0x3706 PUSH2 0x2C59 JUMP JUMPDEST JUMPDEST PUSH1 0x0 PUSH2 0x3715 DUP6 DUP3 DUP7 ADD PUSH2 0x2CAC JUMP JUMPDEST SWAP3 POP POP PUSH1 0x20 PUSH2 0x3726 DUP6 DUP3 DUP7 ADD PUSH2 0x36DB JUMP JUMPDEST SWAP2 POP POP SWAP3 POP SWAP3 SWAP1 POP JUMP JUMPDEST PUSH1 0x0 PUSH1 0x20 DUP3 DUP5 SUB SLT ISZERO PUSH2 0x3746 JUMPI PUSH2 0x3745 PUSH2 0x2C59 JUMP JUMPDEST JUMPDEST PUSH1 0x0 PUSH2 0x3754 DUP5 DUP3 DUP6 ADD PUSH2 0x2CAC JUMP JUMPDEST SWAP2 POP POP SWAP3 SWAP2 POP POP JUMP JUMPDEST PUSH1 0x0 DUP1 PUSH1 0x40 DUP4 DUP6 SUB SLT ISZERO PUSH2 0x3774 JUMPI PUSH2 0x3773 PUSH2 0x2C59 JUMP JUMPDEST JUMPDEST PUSH1 0x0 PUSH2 0x3782 DUP6 DUP3 DUP7 ADD PUSH2 0x2CAC JUMP JUMPDEST SWAP3 POP POP PUSH1 0x20 PUSH2 0x3793 DUP6 DUP3 DUP7 ADD PUSH2 0x2CAC JUMP JUMPDEST SWAP2 POP POP SWAP3 POP SWAP3 SWAP1 POP JUMP JUMPDEST PUSH1 0x0 DUP1 PUSH1 0x0 DUP1 PUSH1 0x0 PUSH1 0xA0 DUP7 DUP9 SUB SLT ISZERO PUSH2 0x37B9 JUMPI PUSH2 0x37B8 PUSH2 0x2C59 JUMP JUMPDEST JUMPDEST PUSH1 0x0 PUSH2 0x37C7 DUP9 DUP3 DUP10 ADD PUSH2 0x2CAC JUMP JUMPDEST SWAP6 POP POP PUSH1 0x20 PUSH2 0x37D8 DUP9 DUP3 DUP10 ADD PUSH2 0x2CAC JUMP JUMPDEST SWAP5 POP POP PUSH1 0x40 PUSH2 0x37E9 DUP9 DUP3 DUP10 ADD PUSH2 0x2CE2 JUMP JUMPDEST SWAP4 POP POP PUSH1 0x60 PUSH2 0x37FA DUP9 DUP3 DUP10 ADD PUSH2 0x2CE2 JUMP JUMPDEST SWAP3 POP POP PUSH1 0x80 DUP7 ADD CALLDATALOAD PUSH8 0xFFFFFFFFFFFFFFFF DUP2 GT ISZERO PUSH2 0x381B JUMPI PUSH2 0x381A PUSH2 0x2C5E JUMP JUMPDEST JUMPDEST PUSH2 0x3827 DUP9 DUP3 DUP10 ADD PUSH2 0x31B4 JUMP JUMPDEST SWAP2 POP POP SWAP3 SWAP6 POP SWAP3 SWAP6 SWAP1 SWAP4 POP JUMP JUMPDEST PUSH32 0x4E487B7100000000000000000000000000000000000000000000000000000000 PUSH1 0x0 MSTORE PUSH1 0x22 PUSH1 0x4 MSTORE PUSH1 0x24 PUSH1 0x0 REVERT JUMPDEST PUSH1 0x0 PUSH1 0x2 DUP3 DIV SWAP1 POP PUSH1 0x1 DUP3 AND DUP1 PUSH2 0x387B JUMPI PUSH1 0x7F DUP3 AND SWAP2 POP JUMPDEST PUSH1 0x20 DUP3 LT DUP2 SUB PUSH2 0x388E JUMPI PUSH2 0x388D PUSH2 0x3834 JUMP JUMPDEST JUMPDEST POP SWAP2 SWAP1 POP JUMP JUMPDEST PUSH1 0x0 DUP2 SWAP1 POP DUP2 PUSH1 0x0 MSTORE PUSH1 0x20 PUSH1 0x0 KECCAK256 SWAP1 POP SWAP2 SWAP1 POP JUMP JUMPDEST PUSH1 0x0 PUSH1 0x20 PUSH1 0x1F DUP4 ADD DIV SWAP1 POP SWAP2 SWAP1 POP JUMP JUMPDEST PUSH1 0x0 DUP3 DUP3 SHL SWAP1 POP SWAP3 SWAP2 POP POP JUMP JUMPDEST PUSH1 0x0 PUSH1 0x8 DUP4 MUL PUSH2 0x38F6 PUSH32 0xFFFFFFFFFFFFFFFFFFFFFFFFFFFFFFFFFFFFFFFFFFFFFFFFFFFFFFFFFFFFFFFF DUP3 PUSH2 0x38B9 JUMP JUMPDEST PUSH2 0x3900 DUP7 DUP4 PUSH2 0x38B9 JUMP JUMPDEST SWAP6 POP DUP1 NOT DUP5 AND SWAP4 POP DUP1 DUP7 AND DUP5 OR SWAP3 POP POP POP SWAP4 SWAP3 POP POP POP JUMP JUMPDEST PUSH1 0x0 DUP2 SWAP1 POP SWAP2 SWAP1 POP JUMP JUMPDEST PUSH1 0x0 PUSH2 0x393D PUSH2 0x3938 PUSH2 0x3933 DUP5 PUSH2 0x2CC1 JUMP JUMPDEST PUSH2 0x3918 JUMP JUMPDEST PUSH2 0x2CC1 JUMP JUMPDEST SWAP1 POP SWAP2 SWAP1 POP JUMP JUMPDEST PUSH1 0x0 DUP2 SWAP1 POP SWAP2 SWAP1 POP JUMP JUMPDEST PUSH2 0x3957 DUP4 PUSH2 0x3922 JUMP JUMPDEST PUSH2 0x396B PUSH2 0x3963 DUP3 PUSH2 0x3944 JUMP JUMPDEST DUP5 DUP5 SLOAD PUSH2 0x38C6 JUMP JUMPDEST DUP3 SSTORE POP POP POP POP JUMP JUMPDEST PUSH1 0x0 SWAP1 JUMP JUMPDEST PUSH2 0x3980 PUSH2 0x3973 JUMP JUMPDEST PUSH2 0x398B DUP2 DUP5 DUP5 PUSH2 0x394E JUMP JUMPDEST POP POP POP JUMP JUMPDEST JUMPDEST DUP2 DUP2 LT ISZERO PUSH2 0x39AF JUMPI PUSH2 0x39A4 PUSH1 0x0 DUP3 PUSH2 0x3978 JUMP JUMPDEST PUSH1 0x1 DUP2 ADD SWAP1 POP PUSH2 0x3991 JUMP JUMPDEST POP POP JUMP JUMPDEST PUSH1 0x1F DUP3 GT ISZERO PUSH2 0x39F4 JUMPI PUSH2 0x39C5 DUP2 PUSH2 0x3894 JUMP JUMPDEST PUSH2 0x39CE DUP5 PUSH2 0x38A9 JUMP JUMPDEST DUP2 ADD PUSH1 0x20 DUP6 LT ISZERO PUSH2 0x39DD JUMPI DUP2 SWAP1 POP JUMPDEST PUSH2 0x39F1 PUSH2 0x39E9 DUP6 PUSH2 0x38A9 JUMP JUMPDEST DUP4 ADD DUP3 PUSH2 0x3990 JUMP JUMPDEST POP POP JUMPDEST POP POP POP JUMP JUMPDEST PUSH1 0x0 DUP3 DUP3 SHR SWAP1 POP SWAP3 SWAP2 POP POP JUMP JUMPDEST PUSH1 0x0 PUSH2 0x3A17 PUSH1 0x0 NOT DUP5 PUSH1 0x8 MUL PUSH2 0x39F9 JUMP JUMPDEST NOT DUP1 DUP4 AND SWAP2 POP POP SWAP3 SWAP2 POP POP JUMP JUMPDEST PUSH1 0x0 PUSH2 0x3A30 DUP4 DUP4 PUSH2 0x3A06 JUMP JUMPDEST SWAP2 POP DUP3 PUSH1 0x2 MUL DUP3 OR SWAP1 POP SWAP3 SWAP2 POP POP JUMP JUMPDEST PUSH2 0x3A49 DUP3 PUSH2 0x2FD8 JUMP JUMPDEST PUSH8 0xFFFFFFFFFFFFFFFF DUP2 GT ISZERO PUSH2 0x3A62 JUMPI PUSH2 0x3A61 PUSH2 0x2E37 JUMP JUMPDEST JUMPDEST PUSH2 0x3A6C DUP3 SLOAD PUSH2 0x3863 JUMP JUMPDEST PUSH2 0x3A77 DUP3 DUP3 DUP6 PUSH2 0x39B3 JUMP JUMPDEST PUSH1 0x0 PUSH1 0x20 SWAP1 POP PUSH1 0x1F DUP4 GT PUSH1 0x1 DUP2 EQ PUSH2 0x3AAA JUMPI PUSH1 0x0 DUP5 ISZERO PUSH2 0x3A98 JUMPI DUP3 DUP8 ADD MLOAD SWAP1 POP JUMPDEST PUSH2 0x3AA2 DUP6 DUP3 PUSH2 0x3A24 JUMP JUMPDEST DUP7 SSTORE POP PUSH2 0x3B0A JUMP JUMPDEST PUSH1 0x1F NOT DUP5 AND PUSH2 0x3AB8 DUP7 PUSH2 0x3894 JUMP JUMPDEST PUSH1 0x0 JUMPDEST DUP3 DUP2 LT ISZERO PUSH2 0x3AE0 JUMPI DUP5 DUP10 ADD MLOAD DUP3 SSTORE PUSH1 0x1 DUP3 ADD SWAP2 POP PUSH1 0x20 DUP6 ADD SWAP5 POP PUSH1 0x20 DUP2 ADD SWAP1 POP PUSH2 0x3ABB JUMP JUMPDEST DUP7 DUP4 LT ISZERO PUSH2 0x3AFD JUMPI DUP5 DUP10 ADD MLOAD PUSH2 0x3AF9 PUSH1 0x1F DUP10 AND DUP3 PUSH2 0x3A06 JUMP JUMPDEST DUP4 SSTORE POP JUMPDEST PUSH1 0x1 PUSH1 0x2 DUP9 MUL ADD DUP9 SSTORE POP POP POP JUMPDEST POP POP POP POP POP POP JUMP JUMPDEST PUSH1 0x0 DUP2 SWAP1 POP SWAP3 SWAP2 POP POP JUMP JUMPDEST PUSH1 0x0 DUP2 SLOAD PUSH2 0x3B2A DUP2 PUSH2 0x3863 JUMP JUMPDEST PUSH2 0x3B34 DUP2 DUP7 PUSH2 0x3B12 JUMP JUMPDEST SWAP5 POP PUSH1 0x1 DUP3 AND PUSH1 0x0 DUP2 EQ PUSH2 0x3B4F JUMPI PUSH1 0x1 DUP2 EQ PUSH2 0x3B64 JUMPI PUSH2 0x3B97 JUMP JUMPDEST PUSH1 0xFF NOT DUP4 AND DUP7 MSTORE DUP2 ISZERO ISZERO DUP3 MUL DUP7 ADD SWAP4 POP PUSH2 0x3B97 JUMP JUMPDEST PUSH2 0x3B6D DUP6 PUSH2 0x3894 JUMP JUMPDEST PUSH1 0x0 JUMPDEST DUP4 DUP2 LT ISZERO PUSH2 0x3B8F JUMPI DUP2 SLOAD DUP2 DUP10 ADD MSTORE PUSH1 0x1 DUP3 ADD SWAP2 POP PUSH1 0x20 DUP2 ADD SWAP1 POP PUSH2 0x3B70 JUMP JUMPDEST DUP4 DUP9 ADD SWAP6 POP POP POP JUMPDEST POP POP POP SWAP3 SWAP2 POP POP JUMP JUMPDEST PUSH1 0x0 PUSH2 0x3BAB DUP3 PUSH2 0x2FD8 JUMP JUMPDEST PUSH2 0x3BB5 DUP2 DUP6 PUSH2 0x3B12 JUMP JUMPDEST SWAP4 POP PUSH2 0x3BC5 DUP2 DUP6 PUSH1 0x20 DUP7 ADD PUSH2 0x2FF4 JUMP JUMPDEST DUP1 DUP5 ADD SWAP2 POP POP SWAP3 SWAP2 POP POP JUMP JUMPDEST PUSH1 0x0 PUSH2 0x3BDD DUP3 DUP6 PUSH2 0x3B1D JUMP JUMPDEST SWAP2 POP PUSH2 0x3BE9 DUP3 DUP5 PUSH2 0x3BA0 JUMP JUMPDEST SWAP2 POP DUP2 SWAP1 POP SWAP4 SWAP3 POP POP POP JUMP JUMPDEST PUSH32 0x4E487B7100000000000000000000000000000000000000000000000000000000 PUSH1 0x0 MSTORE PUSH1 0x32 PUSH1 0x4 MSTORE PUSH1 0x24 PUSH1 0x0 REVERT JUMPDEST PUSH1 0x0 PUSH1 0x40 DUP3 ADD SWAP1 POP PUSH2 0x3C39 PUSH1 0x0 DUP4 ADD DUP6 PUSH2 0x336C JUMP JUMPDEST PUSH2 0x3C46 PUSH1 0x20 DUP4 ADD DUP5 PUSH2 0x336C JUMP JUMPDEST SWAP4 SWAP3 POP POP POP JUMP JUMPDEST PUSH1 0x0 PUSH1 0x40 DUP3 ADD SWAP1 POP PUSH2 0x3C62 PUSH1 0x0 DUP4 ADD DUP6 PUSH2 0x2D37 JUMP JUMPDEST PUSH2 0x3C6F PUSH1 0x20 DUP4 ADD DUP5 PUSH2 0x2D37 JUMP JUMPDEST SWAP4 SWAP3 POP POP POP JUMP JUMPDEST PUSH1 0x0 DUP2 SWAP1 POP SWAP2 SWAP1 POP JUMP JUMPDEST PUSH1 0x0 PUSH8 0xFFFFFFFFFFFFFFFF DUP3 AND SWAP1 POP SWAP2 SWAP1 POP JUMP JUMPDEST PUSH1 0x0 PUSH2 0x3CAF PUSH2 0x3CAA PUSH2 0x3CA5 DUP5 PUSH2 0x3C76 JUMP JUMPDEST PUSH2 0x3918 JUMP JUMPDEST PUSH2 0x3C80 JUMP JUMPDEST SWAP1 POP SWAP2 SWAP1 POP JUMP JUMPDEST PUSH2 0x3CBF DUP2 PUSH2 0x3C94 JUMP JUMPDEST DUP3 MSTORE POP POP JUMP JUMPDEST PUSH1 0x0 PUSH1 0x20 DUP3 ADD SWAP1 POP PUSH2 0x3CDA PUSH1 0x0 DUP4 ADD DUP5 PUSH2 0x3CB6 JUMP JUMPDEST SWAP3 SWAP2 POP POP JUMP JUMPDEST PUSH32 0x4E487B7100000000000000000000000000000000000000000000000000000000 PUSH1 0x0 MSTORE PUSH1 0x12 PUSH1 0x4 MSTORE PUSH1 0x24 PUSH1 0x0 REVERT JUMPDEST PUSH2 0x3D18 DUP2 PUSH2 0x360D JUMP JUMPDEST DUP2 EQ PUSH2 0x3D23 JUMPI PUSH1 0x0 DUP1 REVERT JUMPDEST POP JUMP JUMPDEST PUSH1 0x0 DUP2 MLOAD SWAP1 POP PUSH2 0x3D35 DUP2 PUSH2 0x3D0F JUMP JUMPDEST SWAP3 SWAP2 POP POP JUMP JUMPDEST PUSH1 0x0 PUSH1 0x20 DUP3 DUP5 SUB SLT ISZERO PUSH2 0x3D51 JUMPI PUSH2 0x3D50 PUSH2 0x2C59 JUMP JUMPDEST JUMPDEST PUSH1 0x0 PUSH2 0x3D5F DUP5 DUP3 DUP6 ADD PUSH2 0x3D26 JUMP JUMPDEST SWAP2 POP POP SWAP3 SWAP2 POP POP JUMP JUMPDEST PUSH1 0x0 DUP2 MLOAD SWAP1 POP SWAP2 SWAP1 POP JUMP JUMPDEST PUSH1 0x0 DUP3 DUP3 MSTORE PUSH1 0x20 DUP3 ADD SWAP1 POP SWAP3 SWAP2 POP POP JUMP JUMPDEST PUSH1 0x0 PUSH2 0x3D8F DUP3 PUSH2 0x3D68 JUMP JUMPDEST PUSH2 0x3D99 DUP2 DUP6 PUSH2 0x3D73 JUMP JUMPDEST SWAP4 POP PUSH2 0x3DA9 DUP2 DUP6 PUSH1 0x20 DUP7 ADD PUSH2 0x2FF4 JUMP JUMPDEST PUSH2 0x3DB2 DUP2 PUSH2 0x2E26 JUMP JUMPDEST DUP5 ADD SWAP2 POP POP SWAP3 SWAP2 POP POP JUMP JUMPDEST PUSH1 0x0 PUSH1 0xA0 DUP3 ADD SWAP1 POP PUSH2 0x3DD2 PUSH1 0x0 DUP4 ADD DUP9 PUSH2 0x336C JUMP JUMPDEST PUSH2 0x3DDF PUSH1 0x20 DUP4 ADD DUP8 PUSH2 0x336C JUMP JUMPDEST PUSH2 0x3DEC PUSH1 0x40 DUP4 ADD DUP7 PUSH2 0x2D37 JUMP JUMPDEST PUSH2 0x3DF9 PUSH1 0x60 DUP4 ADD DUP6 PUSH2 0x2D37 JUMP JUMPDEST DUP2 DUP2 SUB PUSH1 0x80 DUP4 ADD MSTORE PUSH2 0x3E0B DUP2 DUP5 PUSH2 0x3D84 JUMP JUMPDEST SWAP1 POP SWAP7 SWAP6 POP POP POP POP POP POP JUMP JUMPDEST PUSH1 0x0 DUP2 MLOAD SWAP1 POP PUSH2 0x3E26 DUP2 PUSH2 0x2D8D JUMP JUMPDEST SWAP3 SWAP2 POP POP JUMP JUMPDEST PUSH1 0x0 PUSH1 0x20 DUP3 DUP5 SUB SLT ISZERO PUSH2 0x3E42 JUMPI PUSH2 0x3E41 PUSH2 0x2C59 JUMP JUMPDEST JUMPDEST PUSH1 0x0 PUSH2 0x3E50 DUP5 DUP3 DUP6 ADD PUSH2 0x3E17 JUMP JUMPDEST SWAP2 POP POP SWAP3 SWAP2 POP POP JUMP JUMPDEST PUSH1 0x0 PUSH1 0xA0 DUP3 ADD SWAP1 POP PUSH2 0x3E6E PUSH1 0x0 DUP4 ADD DUP9 PUSH2 0x336C JUMP JUMPDEST PUSH2 0x3E7B PUSH1 0x20 DUP4 ADD DUP8 PUSH2 0x336C JUMP JUMPDEST DUP2 DUP2 SUB PUSH1 0x40 DUP4 ADD MSTORE PUSH2 0x3E8D DUP2 DUP7 PUSH2 0x3531 JUMP JUMPDEST SWAP1 POP DUP2 DUP2 SUB PUSH1 0x60 DUP4 ADD MSTORE PUSH2 0x3EA1 DUP2 DUP6 PUSH2 0x3531 JUMP JUMPDEST SWAP1 POP DUP2 DUP2 SUB PUSH1 0x80 DUP4 ADD MSTORE PUSH2 0x3EB5 DUP2 DUP5 PUSH2 0x3D84 JUMP JUMPDEST SWAP1 POP SWAP7 SWAP6 POP POP POP POP POP POP JUMP JUMPDEST PUSH1 0x0 DUP2 SWAP1 POP SWAP3 SWAP2 POP POP JUMP JUMPDEST PUSH1 0x0 PUSH2 0x3ED7 DUP3 PUSH2 0x3D68 JUMP JUMPDEST PUSH2 0x3EE1 DUP2 DUP6 PUSH2 0x3EC1 JUMP JUMPDEST SWAP4 POP PUSH2 0x3EF1 DUP2 DUP6 PUSH1 0x20 DUP7 ADD PUSH2 0x2FF4 JUMP JUMPDEST DUP1 DUP5 ADD SWAP2 POP POP SWAP3 SWAP2 POP POP JUMP JUMPDEST PUSH1 0x0 PUSH2 0x3F09 DUP3 DUP5 PUSH2 0x3ECC JUMP JUMPDEST SWAP2 POP DUP2 SWAP1 POP SWAP3 SWAP2 POP POP JUMP JUMPDEST PUSH32 0x4E487B7100000000000000000000000000000000000000000000000000000000 PUSH1 0x0 MSTORE PUSH1 0x11 PUSH1 0x4 MSTORE PUSH1 0x24 PUSH1 0x0 REVERT JUMPDEST PUSH1 0x0 PUSH2 0x3F4E DUP3 PUSH2 0x2CC1 JUMP JUMPDEST SWAP2 POP PUSH2 0x3F59 DUP4 PUSH2 0x2CC1 JUMP JUMPDEST SWAP3 POP DUP3 DUP3 ADD SWAP1 POP DUP1 DUP3 GT ISZERO PUSH2 0x3F71 JUMPI PUSH2 0x3F70 PUSH2 0x3F14 JUMP JUMPDEST JUMPDEST SWAP3 SWAP2 POP POP JUMP JUMPDEST PUSH1 0x0 PUSH1 0x80 DUP3 ADD SWAP1 POP PUSH2 0x3F8C PUSH1 0x0 DUP4 ADD DUP8 PUSH2 0x336C JUMP JUMPDEST PUSH2 0x3F99 PUSH1 0x20 DUP4 ADD DUP7 PUSH2 0x2D37 JUMP JUMPDEST PUSH2 0x3FA6 PUSH1 0x40 DUP4 ADD DUP6 PUSH2 0x2D37 JUMP JUMPDEST PUSH2 0x3FB3 PUSH1 0x60 DUP4 ADD DUP5 PUSH2 0x2D37 JUMP JUMPDEST SWAP6 SWAP5 POP POP POP POP POP JUMP JUMPDEST PUSH1 0x0 PUSH1 0x40 DUP3 ADD SWAP1 POP DUP2 DUP2 SUB PUSH1 0x0 DUP4 ADD MSTORE PUSH2 0x3FD6 DUP2 DUP6 PUSH2 0x3531 JUMP JUMPDEST SWAP1 POP DUP2 DUP2 SUB PUSH1 0x20 DUP4 ADD MSTORE PUSH2 0x3FEA DUP2 DUP5 PUSH2 0x3531 JUMP JUMPDEST SWAP1 POP SWAP4 SWAP3 POP POP POP JUMP INVALID LOG2 PUSH5 0x6970667358 0x22 SLT KECCAK256 0xA6 0x2C PUSH31 0x65C208625313518BC224F67B05089A2F8B1C4983EB7FF76248A42E1B6F6473 PUSH16 0x6C634300081C00330000000000000000 "},"methodIdentifiers":{"UPGRADE_INTERFACE_VERSION()":"ad3cb1cc","balanceOf(address,uint256)":"00fdd58e","balanceOfBatch(address[],uint256[])":"4e1273f4","exists(uint256)":"4f558e79","firstMinter(uint256)":"2faa69a8","initialize(address)":"c4d66de8","isApprovedForAll(address,address)":"e985e9c5","mint(address,uint256,uint256,bytes)":"731133e9","mintBatch(address,uint256[],uint256[],bytes)":"1f7fdffa","owner()":"8da5cb5b","pause()":"8456cb59","paused()":"5c975abb","proxiableUUID()":"52d1902d","renounceOwnership()":"715018a6","safeBatchTransferFrom(address,address,uint256[],uint256[],bytes)":"2eb2c2d6","safeTransferFrom(address,address,uint256,uint256,bytes)":"f242432a","setApprovalForAll(address,bool)":"a22cb465","setURI(string)":"02fe5305","supportsInterface(bytes4)":"01ffc9a7","totalSupply()":"18160ddd","totalSupply(uint256)":"bd85b039","transferOwnership(address)":"f2fde38b","unpause()":"3f4ba83a","upgradeToAndCall(address,bytes)":"4f1ef286","uri(uint256)":"0e89341c"}},"storageLayout":{"storage":[{"astId":9466,"contract":"contracts/EmojiChatV2.sol:EmojiChatV2","label":"firstMinter","offset":0,"slot":"0","type":"t_mapping(t_uint256,t_address)"},{"astId":9469,"contract":"contracts/EmojiChatV2.sol:EmojiChatV2","label":"_baseURI","offset":0,"slot":"1","type":"t_string_storage"}],"types":{"t_address":{"encoding":"inplace","label":"address","numberOfBytes":"20"},"t_mapping(t_uint256,t_address)":{"encoding":"mapping","key":"t_uint256","label":"mapping(uint256 => address)","numberOfBytes":"32","value":"t_address"},"t_string_storage":{"encoding":"bytes","label":"string","numberOfBytes":"32"},"t_uint256":{"encoding":"inplace","label":"uint256","numberOfBytes":"32"}}}}}}